:020000040800F2
:10000000280A0020650100085B020008530200086E
:10001000570200084B020008FD0300080000000022
:100020000000000000000000000000006302000863
:100030004F020008000000005F0200087D01000878
:100040007F0100087F0100087F0100087F01000890
:100050007F0100087F0100087F0100087F01000880
:100060007F0100087F0100087F0100087F01000870
:100070007F0100087F0100087F0100087F01000860
:100080007F0100087F0100087F0100087F01000850
:100090007F0100087F0100087F0100087F01000840
:1000A0007F0100087F0100087F0100087F01000830
:1000B0007F010008B10300087F0100087F010008EC
:1000C0007F0100087F0100087F0100087F01000810
:1000D0007F0100087F0100087F0100087F01000800
:1000E0007F0100087F010008C90300087F010008A4
:1000F0007F0100087F0100087F0100080000000068
:100100007F010008000000007F0100087F01000857
:100110007F0100087F0100087F0100087F010008BF
:100120007F0100087F0100087F0100087F010008AF
:100130007F0100087F0100087F0100087F0100089F
:100140007F0100087F0100087F010008B903000853
:10015000DFF80CD000F03CF800480047090A00081E
:10016000280A00200648804706480047FEE7FEE7C9
:10017000FEE7FEE7FEE7FEE7FEE7FEE7FEE7FEE757
:10018000690200085101000840EA01039B0703D0FF
:1001900009E008C9121F08C0042AFAD203E011F8C6
:1001A000013B00F8013B521EF9D27047D2B201E088
:1001B00000F8012B491EFBD270470022F6E710B56C
:1001C00013460A4604461946FFF7F0FF204610BDC5
:1001D000064C074D06E0E06840F0010394E8070094
:1001E00098471034AC42F6D3FFF7B6FF4426000818
:1001F0006426000870B58C1810F8015B15F0070331
:1002000001D110F8013B2A1106D110F8012B03E0AF
:1002100010F8016B01F8016B5B1EF9D12B0705D4B7
:100220000023521E0DD401F8013BFAE710F8013B00
:10023000CB1A921C03E013F8015B01F8015B521E1C
:10024000F9D5A142D8D3002070BD00BFFEE700BFA2
:10025000FEE700BFFEE700BFFEE700BFFEE700BF0E
:10026000FEE700BFFEE700001CB54E48006840F402
:1002700070004C4908604C48006840F001004A4951
:10028000086000BF4848006800F002000028F9D06C
:100290004548406800F00C00082866D100BF0020E7
:1002A000019002E00198401C019001985028F9D378
:1002B0003D4840680090009820F0F00000900098C1
:1002C00040F080000090384900984860002001907C
:1002D00002E00198401C019001985028F9D332485F
:1002E00040680090009820F0F0000090009840F0E6
:1002F000900000902C49009848600020019002E096
:100300000198401C019001985028F9D32648406874
:100310000090009820F0F0000090009840F0A000BD
:1003200000902149009848600020019002E0019867
:10033000401C019001985028F9D31B484068009058
:10034000009820F0F0000090009840F0B00000907D
:100350001549009848600020019002E00198401C77
:10036000019001985028F9D300BF0F48406820F051
:1003700003000D494860C82000F051F80A480068A1
:100380000A490840084908604FF47F008860084621
:10039000006820F48020086000204860C86200F0F7
:1003A0008FFE1CBD88ED00E000100240FFFFF6EA62
:1003B00010B501F06FF910BD10B5024801F0F5FE5F
:1003C00010BD00000402002010B50A48807960B119
:1003D00000F08AFD0848006800F07AFD40F20C50F9
:1003E00000F052FD034800F046FF4FF4802000F07B
:1003F00099FA10BD040200200800002000BFFEE7AB
:1004000002E008C8121F08C1002AFAD170477047DD
:10041000002001E001C1121F002AFBD1704708B57E
:100420000021009102E00099491C009100EB80013D
:10043000009AB2EB410FF6D308BD0346D3F8B003E0
:10044000806880781080D3F8B0038068704710B55A
:100450000346D3F8B00340688478D3F8B00340680B
:10046000C07844EA00201080D3F8B003406810BD83
:100470000346D3F8B003006800781080D3F8B003C7
:100480000068704770B504460D460026287800F0D5
:10049000030020B1012813D0022829D111E0CE2079
:1004A000005D022803D0CE20005D032807D16888B4
:1004B000012804D1002184F8A213002070BD18E0A7
:1004C00017E02E79CE20005D032810D1688860B92E
:1004D0005EB1802E09D03146204601F014FCD4F8DC
:1004E000B4032946C268204690470020E6E700E0B2
:1004F00000BF00BF0120E1E710B502460C46012015
:1005000002F1D001CE239B5C022B02D0032B0AD137
:1005100004E092F8CC3003B9002005E092F8CC302A
:1005200003B1002000E000BF00BF20B902F1CC03FE
:100530008B6001234B6110BD2DE9F04707460D4646
:100540000026B0464FF0010907F1D004287800F0EA
:10055000030020B101284BD0022852D150E0688816
:10056000060A95F80280102E3FD2DFE806F03E081A
:10057000182331323334353E3E3E3E3E3E36701E09
:10058000304951F8203004F114024146384698476A
:10059000A060E888402801D10820606126E0701E34
:1005A000284951F8203004F1140241463846984752
:1005B000A0601BE0B8F10A0F09DA701E214951F85A
:1005C000203004F11402414638469847A0600DE0FF
:1005D00000BF00BF00BF00BF08E004F114024146A5
:1005E0003846FFF72AFFA06000E000BF00BF09E027
:1005F000D7F8B4032946C26838469047814601E0DF
:1006000000E000BF00BF6069C0B1E888B0B1E98810
:10061000606988420ED2A188606988420CD3A188A3
:100620006069B0FBF1F201FB120028B9012187F8E3
:10063000AD1301E0E88860614FF000094846BDE86D
:10064000F0870000480000200246CE20805C012890
:1006500004D0022803D0032810D101E00FE00EE0FF
:100660000879012809D802F1D003D2F8B403401C5C
:100670009860012058610020704700E000BF00BF73
:100680000120F9E770B502460B461979012002F105
:10069000D0041D7805F0030525B1012D1FD0022DD2
:1006A00044D124E0CE25AD5C022D03D0CE25AD5C37
:1006B000032D13D192F8A0531DB101251F4E3570A3
:1006C00002E000251D4E357092F8A2532DB11B4D4E
:1006D0002D7845F00205194E3570002027E0CE2513
:1006E000AD5C032D02D1012900D800201FE0CE25EA
:1006F000AD5C032D19D101F08005802D0BD101F0E7
:100700007F0505EB450602F1D00505EBC605AD7882
:100710000A4E357008E001EB410602F50E7505EB57
:10072000C605AD78054E3570002000E000BF00BF63
:1007300018B9024DA5600225656170BD5400002006
:1007400002460120704710B50246888838BBC88829
:1007500028BB887800F07F03CD208354CE20805CB6
:1007600003281CD0CD23985C00BF53691B6823F479
:10077000FE6453691C6053691B6843EA00145369A3
:100780001C6000BF00BFCD20805C18B10223CE20CA
:10079000835402E00123CE208354002010BD0120A9
:1007A000FCE7000070B504460D460126A8782949EB
:1007B00008700846007801284AD8CE20005D01283C
:1007C00043D0022802D0032840D112E0214800780B
:1007D00068B1D4F8B40342681E48017820469047B7
:1007E0001C48007884F8CC000321CE200155002657
:1007F0002DE01848007870B9D4F8B4038268154821
:100800000178204690471348007884F8CC000221F4
:10081000CE20015517E094F8CC000E4909788842A3
:1008200011D0D4F8B40382680A4801782046904772
:100830000848007884F8CC00D4F8B403426805482E
:10084000017820469047002601E000E000BF00BF8D
:10085000304670BD5600002002460020704770B53B
:1008600004460D460026287800F0030020B1012838
:1008700013D0022823D111E0CE20005D022803D03E
:10088000CE20005D032807D16888012802D101210C
:1008900084F8A213002070BD12E011E02E79CE2062
:1008A000005D03280AD1688830B92EB1802E03D0AC
:1008B0003146204601F00AFA0020ECE700E000BFD4
:1008C00000BF0120E7E770B504460D46CE20005D6D
:1008D000012804D0022803D0032812D101E011E03E
:1008E00010E0287901280BD8D4F8B403006928B1A6
:1008F000D4F8B4032946026920469047002070BD11
:1009000000E000BF00BF0120F9E702460020704769
:1009100010B50346D3F8B043E46854F821000478D6
:10092000148010BD014908607047000014040140A4
:1009300070B505460C4607480560204600F00EF8E5
:1009400000BF044800680028FBD1034800F0C1FB49
:1009500070BD000000000020000400401FB50446E8
:10096000184800F0B6FB0121164800F009FC022CE3
:1009700002D10B20029004E0012C02D142F6DF608C
:10098000029011480088ADF800000020ADF8020088
:10099000ADF80400ADF806008DF80C006946094872
:1009A00000F0A2FB0121074800F0F2FB054800F02F
:1009B0008BFB0121034800F0E7FB024800F08EFBAF
:1009C0001FBD0000000400400400002030B50B46AD
:1009D000002116E00A24B4EB107F05D9302404EB83
:1009E000107403F8114005E0412404EB10740A3C34
:1009F00003F81140000100254C00641C1D554C1CDF
:100A0000E1B29142E6DB30BD00F0ACFD00F032FE19
:100A1000044A0549054801F0DCF900F090FD00BFEB
:100A2000FEE70000D4010020C401002004020020E1
:100A30002DE9F04103460D46164600240027A04646
:100A40002A48006800F4E060B0F5E06F03D100BF11
:100A50004FF0040830E02548006800F4E060B0F58D
:100A6000C06F03D101274FF0030825E01F4800683D
:100A700000F4E060B0F5A06F02D10227B8461BE099
:100A80001A48006800F4E060B0F5806F03D10327D6
:100A90004FF0010810E01548006800F4E060B0F580
:100AA000407F03D104274FF0000805E04FF4A06019
:100AB00000F020F80227B846C7F1040005FA00F458
:100AC000C8F104010F20C840304004432401084805
:100AD000C45403F01F01012088405911890001F11D
:100AE000E021C1F80001BDE8F08100000CED00E05C
:100AF00000E400E002490143024A1160704700002F
:100B00000000FA050CED00E010B5334B1B68334CC8
:100B10002340314C236023461B6803432360B1F517
:100B2000402F0DD130B923461B682D4C23432A4C4E
:100B3000236005E0284B1B682A4C2343264C236086
:100B4000294B1B6843F00403274C23604FF0E0233C
:100B50001B69264C2360264B1B686360244B1B1DBE
:100B60001B68A360224B08331B68E3604FF0E0234F
:100B70001B69204C23404FF0E02423611E4B1C4C8A
:100B8000803423606FF4E063241D2360DB124FF098
:100B9000E024C4F888310AB930BF02E040BF20BF6A
:100BA00020BF124B1B684FF0E02423610F4B5B68A2
:100BB0000F4C23600D4B9B684FF0E024C4F80431C8
:100BC0000A4BDB68C4F80831074B1B6823F00403A9
:100BD000054C236010BD000000700040FCF3F3FFE3
:100BE00000080C0000040C0010ED00E0D40500200B
:100BF00000E100E0040001003DF87FFF70B504460D
:100C00000D468121204600F0DAFF0121204600F048
:100C1000D6FF002070BD02460020704770B5044624
:100C20000D460849204601F019F80649C91D20461D
:100C300001F014F84023044A0121204600F0D9FFB6
:100C4000002070BD1C240008E4050020024600209E
:100C50007047000070B505460E4605F1D004707867
:100C600020B1012807D0022811D109E00A48A0606C
:100C7000672060610DE00948A0600120606108E024
:100C80004023074A0121284600F0B3FF01E002207B
:100C900070BD00BF0020FBE7590000205800002075
:100CA000E40500202DE9F14F8EB000200C905CA0EF
:100CB00090E8004CC068CDE905BECDF810A00790C3
:100CC00058A0D0F804A00068CDE9020A0FF2541A27
:100CD000DAE9000ACDE9000A55484068C0F381000E
:100CE0000D900D9820B1012804D0022863D103E0B3
:100CF000504B62E0504B60E04D48406800F4803952
:100D0000B9F5803F2FD14A48C06A00F080400B906F
:100D10000B9808B9484A00E0484A4548C06A00F4C0
:100D200080300A900A98B0F5803F12D14048C06ADE
:100D3000C0F30310401C08903D48C06AC0F3032074
:100D4000871C112F00D114270898B2FBF0F000FB8C
:100D500007F23748C06A00F00F00401C099009985C
:100D6000B2FBF0F200E0364A31484068C0F38341FC
:100D70002F48406800F0005008B141F010012C48A5
:100D8000406800F0804008B141F020010F2901D2F5
:100D9000891C06E00F2903D33E2901D8491C00E035
:100DA0003F2102FB01F30F2904D102EB4200400076
:100DB00000EB520301E01F4B00BF00BF1C4840681E
:100DC000C0F3031504A8465D23FA06F418484068EA
:100DD000C0F3022502A8465D24FA06FC14484068C8
:100DE000C0F3C2251DF8056024FA06F80E9830B14C
:100DF000012806D0022806D003280AD106E00C9369
:100E000008E00C9406E0CDF830C003E0CDF8308067
:100E100000E000BF00BF0C980FB0BDE8F08F0000ED
:100E2000000000000000000001020304060708099A
:100E30000010024000127A0040787D01006CDC0254
:100E400000093D000146074A02EB9110006801F0DD
:100E50001F0301229A40104008B101207047002072
:100E6000FCE7000000100240064A02EB90110968FE
:100E700000F01F0301229A401143024B03EB901232
:100E80001160704700100240064A02EB9011096899
:100E900000F01F0301229A401143024B03EB901212
:100EA0001160704700100240044A516821F00301AC
:100EB00041EA0002014B5A607047000000100240F6
:100EC0000248406800F00C0070470000001002402B
:100ED000044A516821F4400141EA0002014B5A6082
:100EE000704700000010024010B51020FFF7BCFF53
:100EF00000BF1120FFF7A6FF0028FAD01A20FFF745
:100F0000B3FF00BF1B20FFF79DFF0028FAD0182079
:100F1000FFF7AAFF00BF1920FFF794FF0028FAD0BF
:100F20000220FFF7C1FF00BFFFF7CAFF0828FBD16F
:100F300010BD0000F0B504462078062813D00E48F6
:100F40000568001D0668001D07683D4455B108226C
:100F5000A11C2846FFF73AFD042204F11201304695
:100F6000FFF734FD06E00549086810B16080010C08
:100F7000A18000BFF0BD0000E8F7FF1F0021024084
:100F800008B500200021484A126842F48032464BDE
:100F90001A6000BF401C444A126802F4003119B9BB
:100FA0004FF6FF729042F5D13F4A126802F40032C8
:100FB0000AB900BFFEE73C4AD26942F080523A4B80
:100FC000DA613A4A126842F44042384B1A60364AB3
:100FD0005268354B5A601A4652685A601A4652682F
:100FE00042F480625A601A465268314B1A402E4BC6
:100FF0005A601A4652682F4B1A432B4B5A601A46B6
:10100000D26A2D4B1A40284BDA621A46D26A2B4B11
:101010001A43254BDA621A46126842F080621A605F
:1010200000BF214A126802F00062002AF9D01E4A6D
:10103000126842F080721C4B1A6000BF1A4A126894
:1010400002F00072002AF9D0184A126842F4803285
:10105000164B1A6000BF154A526802F48032002A0B
:10106000F9D0124A126842F40032104B1A6000BFE5
:101070000E4A526802F40032002AF9D00A4A526835
:101080000092009A22F003020092009A42F00202BB
:101090000092054B009A5A6000BF034A526802F062
:1010A0000802002AF9D008BD00100240007000407C
:1010B000FFFFC39F0000352000F0FEBF490601007E
:1010C00010B5FFF75DFF10BD016841F080010160C0
:1010D0007047016821F0010101607047016841F02B
:1010E00001010160704700000A8882621D4A904237
:1010F0000ED0B0F1804F0BD01B4A904208D01B4A53
:10110000904205D01A4A904202D01A4A90420BD11E
:10111000026822F07002026002684B881A43026083
:1011200002688B881A4302608A68C262124A90423F
:101130000AD0124A904207D0026822F4407202603C
:101140000268CB881A430260064A904202D0094ADC
:10115000904201D10A7B0263426942F0010242617E
:1011600070470000002C01400004004000080040CF
:10117000000C00400034014000100040001400400A
:10118000C2688A43C2607047C2680A43C26070473F
:10119000CA43026170470246D06800EA0103106941
:1011A000084010B10BB1012070470020FCE730B5BA
:1011B000AFB004460D460020E070022020704FF0D2
:1011C000A040E060082060700420A0700220207120
:1011D00000206071A071BC216846FEF7EEFFE06858
:1011E0000090E06800F500600190E06800F5806024
:1011F0000290E06800F588601E90E06800F560608D
:10120000BC2269462E902846FEF7BEFF002013E060
:10121000E16801F5106101EB401205F10C0141F8A4
:101220002020E16801F5306101EB401205F1240155
:1012300041F82020411CC8B2A1788142E8DC00209E
:1012400013E0E16801F5A06101EB401205F13C01FA
:1012500041F82020E16801F5805101EB003205F1F1
:101260007C0141F82020411CC8B261788142E8DC51
:1012700000202FB030BD817961B14169896801F0EA
:10128000010139B1D0F8C810096821F00302D0F883
:10129000C8100A60704700001FB5069C9DF8040046
:1012A000012818D12068806B20F480302168886381
:1012B0009DF8050028B12068806B40F480102168FB
:1012C00088632068C068164908402168C8602046C5
:1012D00000F028F820E02068C06840F04000216855
:1012E000C860204600F01EF82068806B40F4502053
:1012F000216888632068806B40F40010216888634F
:101300009DF8050028B12068806B40F480102168AA
:101310008863142000F01EF9002004B010BD000006
:10132000BFFFDFFF10B504462068006940F00100F0
:101330002168086100BF2068006900F001000028F2
:10134000F9D1032000F062FB10BD0000014A416B9F
:101350000A617047180008600268D26822F0C04233
:101360000368DA6031B90268D26842F080420368EB
:10137000DA6007E0012905D10268D26842F0005224
:101380000368DA607047000070B50446002500214C
:10139000D4F8C80001606069006820F4C051606939
:1013A000016060690068616908606069006820F038
:1013B0000301606901606069006840F003016069D1
:1013C000016080202169486200BF00BF09E04048F9
:1013D00030F81520294604F1100000F027F9681CA8
:1013E000C5B2042DF3D3102104F1100000F0E9FA86
:1013F00004F1100000F0FAF80021606901616069F1
:101400004161491E6069816100216069C1610025F7
:101410004FE004F11C0050F82500006800F0004087
:1014200060B104F11C0050F82500006840F09041C4
:1014300004F11C0050F82500016005E0002104F1D2
:101440001C0050F825000160002104F11C0050F838
:1014500025000161FF2104F11C0050F82500816086
:1014600004F1340050F82500006800F0004060B13D
:1014700004F1340050F82500006840F0904104F178
:10148000340050F82500016005E0002104F134002B
:1014900050F825000160002104F1340050F82500C7
:1014A0000161FF2104F1340050F825008160681CBF
:1014B000C5B2A078A842ACDC6069006940F01001B8
:1014C00060690161204600F005F8002070BD000051
:1014D0000C00002001464FF0FF300A6950606FF0A9
:1014E00080400A69506109480A699061C87828B942
:1014F0000869806940F010000A6990610869806994
:10150000034A10430A699061002070470008008078
:1015100008303C0030B50246002055692B695569FA
:101520006C6B24FA01F505F0010543EAC51302F1DD
:101530001C0555F82150AD6805EA030030BD10B513
:101540004FF4A060FFF7D6FA002202214320FFF7F4
:101550006FFA10BD10B5044601212046FFF7E8F9E7
:1015600010BD000010B50020FFF79CFB0446194891
:10157000844207D14FF480001749086003201749BF
:1015800008801EE01648844206D1002012490860F7
:1015900005201249088014E01248844207D14FF414
:1015A00040000D49086007200C49088009E00E48FA
:1015B000844206D14FF4000007490860092007491A
:1015C000088005480068FFF783FC40F20C50FFF7E5
:1015D0005BFC10BD006CDC02080000200400002051
:1015E00000A24A0400D8B805000E270710B504462B
:1015F00010202168086100BF2068006900F0100019
:101600000028F9D1032000F001FA002010BD70B5C8
:101610000346D01C8508DC6F02E020680860091DC5
:10162000281EA5F10105F8D1084670BD70B5134616
:101630000468626A21B942EA03440568AC6218E0B2
:101640000468A46A02EB1442002408E0056805F56A
:10165000827555F8245002EB1542651CECB24D1E04
:10166000A542F3D842EA0346046804F5827444F8BC
:10167000256070BD10B54FF4A060FFF73BFA002263
:1016800001211D20FFF7D4F940F20170FFF7FCFBA8
:1016900010BD000010B501210A48FFF77CFD78B1AC
:1016A00001210848FFF774FD0748006828B1064883
:1016B0000068401E0449086002E00248FFF709FD87
:1016C00010BD00000004004000000020F0B50246FC
:1016D0000C460021002550698068C0F3410620783F
:1016E00000F00F032078C00938B102F11C0050F857
:1016F0002310012000FA03F508E002F1340050F84D
:10170000231003F11000012707FA00F5086800F420
:101710000040C8B90868104F384008602BB9086805
:101720000E4FBF5D3843086003E00868A788384360
:1017300008606078800440EA835040F0805040F4B4
:1017400000400F68384308605069C06928435769F2
:10175000F8610020F0BD000000F833FCAE23000863
:1017600010B503460022087800F00F040878C0097D
:1017700020B103F11C0050F8242003E003F13400F1
:1017800050F82420106820F40010106048780328D6
:1017900002D04878022803D1106840F080501060D1
:1017A000002010BD30B502460B460024187800F02A
:1017B0000F011878C00978B1012000FA01F402F194
:1017C0001C0050F82100006820F4004502F11C00C4
:1017D00050F82100056010E001F11000012505FA24
:1017E00000F402F1340050F82100006820F40045B4
:1017F00002F1340050F8210005605069C069A0432F
:101800005569E861002030BD2DE9FC4105460C46D4
:101810000027207800F00F0605F11C0050F8260084
:101820000068019005F11C0050F826000069009046
:10183000009800F060400090E06820B9009840F403
:101840000020009022E066B9A188E068884201D2B9
:10185000E06800E0A088E060009840F4002000907C
:1018600009E0E068401EA1880844B0FBF1F000994F
:1018700041EAC0400090E068009908430090607819
:10188000012803D1009840F00050009005F11C00A1
:1018900050F8260000990161607801280DD168692F
:1018A0008068C0F3002020B1019840F08050019082
:1018B00003E0019840F000500190019840F004408E
:1018C000019005F11C0050F8260001990160E878AC
:1018D000A0B96078012809D0E06878B16869406BE8
:1018E0000121B14008436969486307E0A08983B2D8
:1018F000324605F11000A16800F077F83846BDE8DF
:10190000FC81F0B503460026087800F00F0403F1CF
:10191000340050F82400056803F1340050F8240026
:10192000026902F06042C86800B124B988880243A5
:1019300042F400220CE0B1F804C0CF6867447F1E77
:10194000B7FBFCF042EAC0428F8847433A4300BFEE
:1019500003F1340050F8240002614878012806D1D0
:10196000C87810B145F0005501E045F0805545F0CC
:10197000044503F1340050F8240005603046F0BD02
:1019800010B502460B460021187800F00F041878B5
:10199000C00960B102F11C0050F82410086800F082
:1019A000004040B1086840F08040086003E002F168
:1019B000340050F82410086840F40010086000203B
:1019C00010BD70B504460D46202040EA8510216800
:1019D000086100BF2068006900F020000028F9D1EC
:1019E000032000F013F8002070BDF0B50446D81CA9
:1019F000860804F17C0050F8225002E00868286054
:101A0000091D301EA6F10106F8D1F0BD10B504463F
:101A100002212046FEF78CFF10BD70B504460D462E
:101A2000CE20005D032809D12879012806D8D4F8F2
:101A3000B4032946C2682046904770BD0120FCE7E8
:101A400010B5044600BF6069406820F0020160697B
:101A5000416000BF0320FFF77DFD10BD70B5044657
:101A600004F50E75002120466B69AA6800F0C1F8E4
:101A7000A9886869884203D9032184F8AC1302E07D
:101A8000042184F8AC13002070BD70B5044604F145
:101A9000D005002120466B69AA6800F0C4F8A98827
:101AA0006869884203D9012184F8AC1302E002215D
:101AB00084F8AC13002070BD10B50446062184F8EC
:101AC000AC1300231A461946204600F092F820462F
:101AD000FFF73CFC002010BD10B50446052184F83A
:101AE000AC1300231A461946204600F09CF8204605
:101AF000FFF72CFC002010BD10B5044600BF606944
:101B0000406840F002016069416000BF0320FFF7B8
:101B100021FD10BD2DE9F04106460F4607EB4701B8
:101B200006F1D00000EBC104D4E90301451AA088F6
:101B3000A84200D2A588E81C4FEA900821E0D4E929
:101B40000301451AA088A84200D2A588E81C4FEAE4
:101B50009008ABB2FAB206F11000A168FFF745FF9A
:101B6000A0682844A060206928442061D4E90310BB
:101B7000884206D17069406B0121B9408843716980
:101B8000486306F11C0050F82700806980B2404588
:101B900003D3D4E903108842D1D30120BDE8F081FA
:101BA00070B504460D468021204600F08FF80021D4
:101BB000204600F08BF82046FFF7C8FB70BD70B5DB
:101BC00005460C46E01140B104F07F0000EB4001F7
:101BD00005F1D00000EBC10605E004EB440105F57A
:101BE0000E7000EBC10631462846FFF7DBFD0020F2
:101BF00070BD2DE9F04105460E461746984606F0A1
:101C00007F0000EB400105F50E7000EBC104A760FA
:101C1000C4F80C800020206121462846FFF771FEA1
:101C20000020BDE8F0812DE9F04105460E4617463B
:101C3000984606F07F0000EB400105F1D00000EB74
:101C4000C104A760C4F80C8000202061214628460A
:101C5000FFF7DAFD0020BDE8F08100002DE9F0413A
:101C600007460E46B578B088C0F30A08E81168B197
:101C700005F07F0000EB400107F1D00000EBC1044C
:101C8000207820F080008030207009E005EB4501CD
:101C900007F50E7000EBC104207820F08000207062
:101CA000207865F303002070A4F80480F07800F039
:101CB0000300054911F82000607021463846FFF7FF
:101CC00005FD0020BDE8F081E823000870B5054659
:101CD0000C460026E01140B104F07F0000EB40010B
:101CE00005F1D00000EBC10605E004EB440105F569
:101CF0000E7000EBC1060120B07031462846FFF798
:101D00003FFE002070BD70B505460C460026E01170
:101D100040B104F07F0000EB400105F1D00000EB82
:101D2000C10605E004EB440105F50E7000EBC106A9
:101D30000020B07031462846FFF712FD002070BD2C
:101D400070B504460E46002E33D104F1D00594F848
:101D5000AC03012802D0022828D107E0A9886869CD
:101D6000401A68612046FFF790FE20E094F8AD032A
:101D700048B100231A4619462046FFF754FF0021B8
:101D800084F8AD1311E0CE20005D032808D1D4F80B
:101D9000B403406920B1D4F8B403416920468847B0
:101DA000002068612046FFF787FE00E000BF00BF0B
:101DB0000DE0CE20005D032809D1D4F8B403C0693A
:101DC00028B1D4F8B4033146C269204690470020B8
:101DD00070BDF8B504460D461646C4F8B053C4F8B5
:101DE000B463D4F8B013C968C868FFF7A3F8D4F88F
:101DF000B0034068C079C0F3801184F8A01304F1E7
:101E000010012046FFF7D3F900BF2069806820F059
:101E100001002169886000BF04F11000009094E87F
:101E20000F00FFF739FA2046FFF766FE002104F1A4
:101E30001000FFF791FA2046FFF7A6FA00BF2069CD
:101E4000806840F001002169886000BF2046FFF7EC
:101E5000F7FD0121CE200155F8BD0000014648697B
:101E60008068C0F341024869406820F48073486983
:101E700043604869406840F480734869436008697A
:101E8000C06820F470500B69D8600D48805C03284E
:101E900007D108700869C06840F410500B69D86019
:101EA00007E0022008700869C06840F4A0500B6980
:101EB000D8604FF400500B69586101207047000052
:101EC000B4230008F8B504460026002500BF616968
:101ED00088696169C969084000F03F010E4627E042
:101EE00006F0010008B329462046FFF713FB0090D7
:101EF000009800F0010048B1012104F11C0050F8E5
:101F00002500816029462046FFF71AFF009800F05F
:101F1000800048B129462046FFF7FCFD802104F1EE
:101F20001C0050F82500816000BF7608681CC5B20F
:101F3000002ED5D10120F8BDF8B5044600260025B5
:101F400000BF616988696169C9690840C0F30541DA
:101F50000E462CE006F0010030B300BF04F134015E
:101F600051F82510886861694969084000BF0090F0
:101F7000009800F0010048B1012104F1340050F84C
:101F8000250081602946204600F083F9009800F082
:101F9000080040B1204600F0B7F9082104F13400F0
:101FA00050F82500816000BF7608681CC5B2002E7D
:101FB000D0D10120F8BD000030B58DB00446606975
:101FC000406820F0010160694160002104F11000C7
:101FD000FFF7F7FC00250BE0FF2104F11C0050F88F
:101FE0002500816004F1340050F8250081606D1CEB
:101FF000A078A842F0D84FF0FF31606981614FF0BE
:1020000001116069C1610921606941610121606953
:1020100001616069006820F4FE616069016020462A
:10202000FFF794F94FF4805021694861182107A8FF
:10203000FEF7C3F81822144907A8FEF7A5F81822DE
:1020400007A904F50E70FEF79FF804F50E712046FF
:10205000FFF73CFB182101A8FEF7AFF818220B4947
:1020600001A8FEF791F8182201A904F1D000FEF7AB
:102070008BF804F1D0012046FFF728FB0121CE2088
:10208000015501200DB030BDB8230008D023000851
:102090002DE9F84304460025002700260020009083
:1020A0002069806920F01000216988612069006A38
:1020B0000090009800F00F0808EB480104F50E703E
:1020C00000EBC1050098C0F30A160098C0F3C137B1
:1020D0000098C0F34340072828D2DFE800F0270427
:1020E00005131427150022E05EB1B2B204F110000E
:1020F000A968FFF78CFAA8683044A86028693044C2
:10210000286114E013E012E0287800F00F0060B9B5
:10211000082E0AD14FB9B2B204F5697104F110006A
:10212000FFF775FA28693044286100E000BF00BF5E
:102130002069806940F01000216988610120BDE8B4
:10214000F8833EB50446A07902906069806800F08B
:1021500001000190CE20005D032801D1012000E0A4
:1021600000200090CE20015DCF2001550421CE201B
:1021700001559DF8080090B19DF8040078B19DF8D4
:10218000000060B1D4F8C800006840F00301D4F842
:10219000C8000160002211460120FEF7B5FC4FF493
:1021A00000602169486101203EBD70B50446206988
:1021B000406900F00100002869D120694569206963
:1021C0008069054005B970BD05F4002010B12046B6
:1021D000FFF7B2FE05F4802010B12046FFF772FE33
:1021E00005F4006010B12046FFF7ABFF05F000409A
:1021F00058B1CE20005D042803D1CF20015DCE2050
:1022000001554FF000402169486105F0080058B1C0
:10221000D4F8B403406A20B1D4F8B403416A20462C
:10222000884708202169486105F0100010B1204658
:10223000FFF72EFF05F4805010B12046FFF7BCFEDB
:1022400005F4005010B12046FFF708FE05F4801099
:1022500060B1D4F8B403806A20B1D4F8B403816AC1
:10226000204688474FF480102169486105F400102A
:1022700060B1D4F8B403C06A20B1D4F8B403C16A21
:10228000204688474FF400102169486100BF00BF15
:1022900099E770B504460E4636BB04F50E7594F802
:1022A000AC03032802D004281BD107E0A988686981
:1022B000401A68612046FFF7D1FB13E0CE20005D95
:1022C000032808D1D4F8B403806920B1D4F8B4034A
:1022D000816920468847002068612046FFF7FCFBA3
:1022E00000E000BF00BF0DE0D4F8B403006A48B1BD
:1022F000CE20005D032805D1D4F8B4033146026A2C
:1023000020469047002070BD7CB50446012504F5A9
:102310005370C16D806DCDE900019DF8000000F0A3
:10232000600020B1202808D0402812D10BE0694677
:10233000204600F02BF805460CE069462046FFF7E2
:102340006CFB054606E06946204600F02DF8054680
:1023500000E000BF00BF9DB9BDF8060018B92046D7
:10236000FFF7BAFB10E09DF8000000F0800018B104
:102370002046FFF78AFB07E02046FFF76FFB03E0EC
:1023800069462046FFF70CFC00207CBD70B5054671
:102390000C466078034951F8202021462846904792
:1023A00070BD0000140000200246002070470000AD
:1023B00003000000030201020000000040000000D2
:1023C000000000000000000000000000000000000D
:1023D000800000004000000000000000000000003D
:1023E00000000000000000000000000001000000EC
:1023F0000200000003000000120100020000004083
:10240000E9288D02000101020301090220000101F7
:1024100000A0320904000002070102000705810242
:1024200040000007050102400000040309041603F0
:10243000470069006700610044006500760069009C
:1024400063006500000000000000000000000000C4
:10245000000000000000000000000000000000007C
:10246000000000000000000000000000000000006C
:10247000000000000000000000000000000000005C
:10248000000000000000000000000000000000004C
:10249000000000000000000000000000000000003C
:1024A000000000000000000000000000000000002C
:1024B000000000000000000000000000000000001C
:1024C000000000000000000000000000000000000C
:1024D00000000000000000000000000000000000FC
:1024E00000000000000000000000000000000000EC
:1024F00000000000000000000000000000000000DC
:1025000000000000000000000000000000000000CB
:1025100000000000000000000000000000000000BB
:1025200000000000000000000000000000000000AB
:10253000220347004400330032002D0055005300B1
:1025400042005F005000720069006E007400650078
:102550007200000000000000000000000000000009
:10256000000000000000000000000000000000006B
:10257000000000000000000000000000000000005B
:10258000000000000000000000000000000000004B
:10259000000000000000000000000000000000003B
:1025A000000000000000000000000000000000002B
:1025B000000000000000000000000000000000001B
:1025C000000000000000000000000000000000000B
:1025D00000000000000000000000000000000000FB
:1025E00000000000000000000000000000000000EB
:1025F00000000000000000000000000000000000DB
:1026000000000000000000000000000000000000CA
:1026100000000000000000000000000000000000BA
:1026200000000000000000000000000000000000AA
:10263000000000002A2400082E240008302500088D
:10264000C0000020642600080000002004020000F2
:10265000F40100081C2700080402002024080000E0
:1026600010040008417205124052801385061408B8
:102670008504140841074C085F08081A47041339F9
:10268000051B0859101AF91C1AA5101A49281AC74F
:1026900010130B091B0871141A4F041A110C411264
:1026A00018181F674D414E554641435455524552E7
:1026B0003A47494741204445564943452D3B434FFE
:1026C0004D1D381F44205345543A50434C2C4D5017
:1026D0004C3B4D4F44454C3A4C61736572426561C9
:1026E0006D3F25180C454E543A476F6F6420213BCF
:1026F00049DD495645203B04FF3B1A033113F823BB
:1027000014080A2442084B342608131D0C1408FD33
:0C2710000B1B085508C11A1710DA4D14F5
:04000005080001519D
:00000001FF
