:020000040800F2
:1000000018110020F1010008E3040008DF040008D3
:10001000E1040008CD040008D10C00080000000035
:10002000000000000000000000000000690B000854
:10003000DD04000800000000650B00086B0B0008E1
:100040000B0200080B0200080B0200080B0200085C
:100050000B0200080B0200080B0200080B0200084C
:100060000B0200080B0200080B0200080B0200083C
:100070000B0200080B0200080B0200080B0200082C
:100080000B0200080B0200080B0200080B0200081C
:100090000B0200080B0200080B0200080B0200080C
:1000A0000B0200080B0200080B0200080B020008FC
:1000B0000B0200080B0200080B0200080B020008EC
:1000C0000B0200080B0200080B0200080B020008DC
:1000D0000B0200080B0200080B0200080B020008CC
:1000E0000B0200080B0200085D0C00080B02000860
:1000F0000B0200080B0200080B02000800000000C1
:100100000B020008000000000B0200080B020008B0
:100110000B0200080B0200080B0200080B0200088B
:100120000B0200080B0200080B0200080B0200087B
:100130000B0200080B0200080B0200080B0200086B
:100140000B0200080B0200080B020008510C00080B
:1001500000F002F800F03CF80AA090E8000C82449D
:100160008344AAF10107DA4501D100F031F8AFF27A
:10017000090EBAE80F0013F0010F18BFFB1A43F085
:1001800001031847681C0000881C0000103A24BFB7
:1001900078C878C1FAD8520724BF30C830C144BFEC
:1001A00004680C607047000000230024002500262E
:1001B000103A28BF78C1FBD8520728BF30C148BFCA
:1001C0000B6070471FB501F0EBFD1FBD10B510BDF2
:1001D00000F0B4F81146FFF7F5FF00F0A3FF00F0C0
:1001E000D2F803B4FFF7F2FF03BC00F0D9F8000027
:1001F0000948804709480047FEE7FEE7FEE7FEE7BB
:10020000FEE7FEE7FEE7FEE7FEE7FEE704480549F6
:10021000054A064B70470000710B000851010008A9
:100220001809002018110020180D0020180D0020BA
:1002300072B6704762B6704772B602B4EFF31181BE
:1002400080F31188BFF34F8FBFF36F8F084602BC56
:1002500062B6704772B680F31188BFF34F8FBFF359
:100260006F8F62B6704730BF704720BF7047B0FADB
:1002700080F0704790FAA0F0B0FA80F0704790FAE2
:10028000A0F0704710B5203AC0F00B80B1E81850CC
:10029000203AA0E81850B1E81850A0E81850BFF470
:1002A000F5AF5FEA027C24BFB1E81850A0E818500F
:1002B00044BF18C918C0BDE810405FEA827C24BF63
:1002C00051F8043B40F8043B08BF7047D20728BFF1
:1002D00031F8023B48BF11F8012B28BF20F8023B40
:1002E00048BF00F8012B70474FF0000200B51346DD
:1002F00094469646203922BFA0E80C50A0E80C5046
:10030000B1F12001BFF4F7AF090728BFA0E80C50F6
:1003100048BF0CC05DF804EB890028BF40F8042BEF
:1003200008BF704748BF20F8022B11F0804F18BF5C
:1003300000F8012B7047704770477047754600F012
:100340002BF8AE4605006946534620F00700854667
:1003500018B020B5FFF75AFFBDE820404FF0000667
:100360004FF000074FF000084FF0000B21F007019D
:10037000AC46ACE8C009ACE8C009ACE8C009ACE8E0
:10038000C0098D46704710B50446AFF30080204683
:10039000BDE81040FFF725BF00487047B4080020B3
:1003A00001491820ABBEFEE726000200704700009E
:1003B00072B64EF62250CEF2000040F2FF01C0F2BB
:1003C00000010170002080F3098840F28800C2F229
:1003D0000000016881F3088800F006F940F2560039
:1003E000C2F2000040F25701C2F200010A78027026
:1003F00040F28000C2F2000040F28401C2F200012B
:100400000A680260106880F30988EFF3148040F0F6
:10041000020020F0040080F31488BFF36F8FBDE862
:10042000F04F0FBCBDE8005006BC62B60847264836
:100430004FF080510160704772B640F28C02C2F2F8
:100440000002116881F31188BFF34F8FBFF36F8FE4
:1004500062B6EFF309801EF0100F08BF20ED108A7E
:1004600020E9F04F40F28005C2F2000529680860DB
:10047000744600F0B9F840F25600C2F2000040F2B3
:100480005701C2F200010A78027040F28401C2F200
:1004900000010A682A6044F0040E1068B0E8F04FCA
:1004A0001EF0100F08BFB0EC108A80F3098840F2EC
:1004B0000002C0F2000272B682F31188BFF34F8FC0
:1004C000BFF36F8F62B6704704ED00E0FEE7FEE712
:1004D0000148406870470000001000E07047FEE7E8
:1004E000FEE7704705480078012805D104490878DF
:1004F000FA2801D2401C0870704700005500002007
:100500005400002070B523480078012840D14020D5
:10051000FFF792FE20490446087848B3401E10F0C9
:10052000FF00087024D11D48007808BB1C480168F2
:100530001C48006800F05AFA012802D0002000F0A0
:100540003DF800F011F918491A4D0870174900EBF1
:10055000400051F8200016490860296888420CD1F3
:10056000002000F02DF8012802D0286800F026F8BD
:100570002046BDE87040FFF76DBE50F8941F491C3F
:1005800001600D480168491C0160FFF750FFEFE76B
:1005900070BD000055000020540000205C000020C9
:1005A000E81D0008E41D0008570000203407002063
:1005B000840000208000002068000020FFF787BF33
:1005C00008B9084800680368026A934204D3416C82
:1005D00002EB8100984201D800207047104600F0DD
:1005E00005BA00008000002010B5FFF771FF0D492B
:1005F0000D4A09681268914207D0D1F89C30C31A9D
:1006000041F8983F8C6823448B60C2F89C0000201E
:10061000FFF7D6FF012803D0BDE81040FFF757BF12
:1006200010BD000080000020840000200A4810B5A2
:10063000007801280FD100F015F808480849007823
:1006400000EB400001EB800000F044F9BDE81040F1
:10065000012000F061BA10BD5500002056000020B6
:1006600034070020704710B54020FFF7E5FD044631
:10067000FFF738FF2046FFF7EDFDFFF7D7FFBDE896
:100680001040FFF73FBF1F21403007E0826822B1D2
:1006900092F83B208A4200D21146203000680028A0
:1006A000F4D10846704770B5446B064604F108055E
:1006B000A068C06A002809D0304600F035F83146FD
:1006C00028467463BDE8704000F002B870BD0000B9
:1006D00030B591F83B40026800235AB105896D1C82
:1006E000A0F8085092F83B50A54209D8D26A002AD7
:1006F000F8D10EE001220281CB620B6301600CE0B5
:100700003AB1146B5CB1CA62106B0863C1621163C9
:1007100030BDCB6242680A63D162416030BDC1E93D
:100720000B231163016030BD10B5416B002910D05F
:1007300051F8082F0023D26A62B1026B6AB1C46A11
:100740007CB1D46222630A89521E0A81C3620363A8
:10075000436310BD0B604B60F5E7C26A13630A6028
:10076000F1E7D3624A60EEE7034810B50068FFF78F
:100770007EFDC0B210BD0000580000200449C0F149
:100780001F0301200A68984002430A607047000076
:10079000580000200449C0F11F0301200A68984056
:1007A00082430A60704700005800002010B50446DC
:1007B00090F83B00FFF7E2FF074994F83B00097807
:1007C0008842204603D1BDE8104000F025B8BDE8BE
:1007D000104000F003B800005600002090F83B10D5
:1007E0000C4A01EB410102EB810100220B684BB185
:1007F0000B895B1C0B810B68C0E904320A685061ED
:100800000860704701230B81026142610860486003
:10081000704700003407002090F83B100B4A01EBB2
:10082000410102EB810100220B6843B10B895B1C83
:100830000B8102614A684261106148607047012380
:100840000B81026142610860F7E700003407002075
:1008500010B5D0E90012914209D00C6900239442EE
:1008600006D1C1E90432C2E90413C0E9002110BD78
:100870006361C1E904321161C0E9004110BD0000AB
:1008800070B5054690F83B00114900EB400001EBC4
:100890008001D5E90402002442B10B895B1E0B8163
:1008A000106190B142616C612C6170BD28B10A8900
:1008B000521E0A8144610860F5E70C810C604C60AF
:1008C00095F83B00FFF766FFEDE74A60EBE70000B5
:1008D0003407002070B5044613480078012822D15F
:1008E0004020FFF7A9FC05462068B8B10F498842AF
:1008F00014D0016E11B1491E01660FD1D4E9000177
:1009000088420BD00A48007840B92046FFF7A0FF84
:100910002068C16D09B90749096801662846BDE824
:100920007040FFF797BC70BD640000207006002087
:100930005C0000206000002070B50C464FEA000506
:1009400095F83A0095F83B6008281CD2DFE800F0E3
:1009500004191C1C19191C1C2846FFF791FF85F867
:100960003B402046FFF70AFF1F48006885422846A3
:1009700003D1BDE87040FFF731BFBDE87040FFF71D
:100980004BBF85F83B4070BD85F83B4095F838007B
:100990000728F8D2DFE800F0040504040A05050082
:1009A000F1E72846BDE87040FFF77DBE2846FFF717
:1009B0007AFE686BA642456A95F83B0002D9A042D0
:1009C000E1D90EE0B0420CD12846FFF75CFE0446A8
:1009D00095F83C00A04200D2044695F83B00A042A6
:1009E000D1D0002DACD170BD80000020064A00217E
:1009F0000368934201D000207047001D491C08295C
:100A0000F6D30120704700004523CDAB2DE9F04718
:100A1000404E002705463468002C78D0606DB846FB
:100A2000A84203D82D1AC4F8548001E0401B6BE0A3
:100A30004FF0040A7F1C94F83A00BFB2012808D096
:100A400005280CD094F838004FF00009042809D08C
:100A50000BE084F83A802046FFF7A8FE40E084F8D7
:100A60003AA03DE0606BD0F82490C4F86480A4F80C
:100A70006880FFF72DFDE0642046FFF755FE94F8EF
:100A80003A00032802D0072808D105E02046FFF7E6
:100A90008DFE84F83A8001E084F83AA0032084F8BF
:100AA000390084F83880B9F1000F19D099F83B006B
:100AB00099F83C10884213D094F83B1088420FD12B
:100AC0004846FFF7E0FD014699F83C00884200D215
:100AD000014699F83B00884202D04846FFF72CFFB8
:100AE000A469346064B1B088401EB080C4F81C8032
:100AF000616D4046A94206D86D1A60659AE706E026
:100B0000A6F8048003E0481B6065002890D0F780B9
:100B1000BDE8F0877000002070B505464020FFF763
:100B20008BFB04460C48016829440160FFF7D0FCA8
:100B300006462846FFF76AFFFFF7CAFC0749801BF5
:100B4000086007490A68824200D208602046BDE872
:100B50007040FFF77FBB00006C0000207800002091
:100B60007C000020FFF768BC7047FFF77CBD0000E9
:100B7000344882B0016841F4700101603248016874
:100B800041F00101016001688907FCD54168C1F3AA
:100B900081020021022A35D10091009A521C009254
:100BA000502AFAD3426822F0F00242F080024260FA
:100BB0000091009A521C0092502AFAD3426822F007
:100BC000F00242F0900242600091009A521C0092A2
:100BD000502AFAD3426822F0F00242F0A0024260AA
:100BE0000091009A521C0092502AFAD3426822F0D7
:100BF000F00242F0B00242600091009A521C009252
:100C0000502AFAD3426822F003024260C82202EB63
:100C100082020B46009101E05B1C0093B3EB420F94
:100C2000FAD30268094B1A4002604FF47F028260D7
:100C3000026822F4802202604160C16202B000F0CA
:100C400019BB000088ED00E000100240FFFFF6EA4B
:100C5000014800F081BF0000900000201A4810B544
:100C6000807950B3102000F0CDFA112000F0BAFACC
:100C70000028FAD01A2000F0C5FA1B2000F0B2FAC2
:100C80000028FAD0182000F0BDFA192000F0AAFAC6
:100C90000028FAD0022000F0D1FA00BF00F0D8FA04
:100CA0000828FBD10948006800F0DAFA40F20C503D
:100CB00000F0B6FA044800F0CAFBBDE810404FF45B
:100CC000802000F0DFB90000900000200C00002020
:100CD000FEE70907090E002804DB00F1E02080F898
:100CE0000014704700F00F0000F1E02080F8141DA0
:100CF0007047D0F8B013496849881180D0F8B00324
:100D000040687047D0F8B013096809781180D0F8AE
:100D1000B0030068704770B5044608780D4610F0BF
:100D2000030004D0012816D0022814D10EE094F854
:100D3000CE00022803D094F8CE0003280BD14888B7
:100D4000012808D1002084F8A20314E0297994F83E
:100D5000CE00032801D0012070BD688858B951B178
:100D6000802908D0204600F09CFDD4F8B403294621
:100D7000C26820469047002070BD90F8CE30012117
:100D800000F1D002022B02D0032B0CD103E090F82B
:100D9000CC301BB107E090F8CC3023B1CC3000212F
:100DA0009060012050610846704700002DE9F04135
:100DB000054600F1D004087801270E4610F0030024
:100DC00002D0012836D12FE0718805F1E402080A2B
:100DD000C9B210282ED2DFE800F02D0813162D2DF1
:100DE0002D2D2D2D2D2D2D2D2D1D1E480368284612
:100DF0009847A060F08840281CD1082060611BE063
:100E00001848436803E00A2914D216488368284624
:100E1000984707E0D5F8B00380688078A082D5F8BD
:100E2000B0038068A06005E0D5F8B403C268284626
:100E300090470746606990B1F08880B1616981424E
:100E40000BD2A088814209D3B1FBF0F200FB121053
:100E500020B9012085F8AD0300E060610027384625
:100E6000BDE8F0814800002090F8CE20012A10D083
:100E7000022A0ED0032A0CD10979012909D800F1E0
:100E8000D001D0F8B403401C8860012048610020E4
:100E9000704701207047000030B50C7909780122B5
:100EA00011F003051F4900F1D00304D0012D16D025
:100EB000022D35D11AE090F8CE40022C03D090F8E4
:100EC000CE40032C2CD190F8A02302B101220A704D
:100ED00090F8A20300B3D0B240F002001BE090F8FB
:100EE000CE0003281CD1012C16D919E090F8CE5061
:100EF000032D15D1220608D504F07F0202EB420231
:100F000000EBC20090F8D20005E004EB440200EBD5
:100F1000C20090F83A0208700022022099605861DD
:100F2000104630BD11000020012070478A88F2B9B8
:100F3000CA88E2B9897801F07F0180F8CD1090F875
:100F4000CE20032A13D04269136823F4FE63136092
:100F50004269136843EA0111116090F8CD1009B19C
:100F6000022100E0012180F8CE100020704701200E
:100F70007047000070B51D4D044689780120297026
:100F8000012919D894F8CE20012A15D0022A07D0B9
:100F9000032A11D189B194F8CC00884218D10AE013
:100FA00049B1D4F8B403426820469047287804F841
:100FB000CC0F03200AE0002070BDD4F8B40382688F
:100FC00020469047287804F8CC0F0220A070F2E762
:100FD000D4F8B403826820469047297884F8CC106E
:100FE000D4F8B403426820469047E4E7100000209C
:100FF0000020704710B50A7812F0030204D0012ACD
:1010000015D0022A13D10DE090F8CE20022A03D089
:1010100090F8CE20032A0AD14988012911D180F8FD
:10102000A2130EE00A7990F8CE30032B01D00120F4
:1010300010BD498829B922B1802A02D0114600F09A
:1010400019FC002010BD10B590F8CE20012A0DD05B
:10105000022A0BD0032A09D10A79012A06D8D0F82E
:10106000B423126902B19047002010BD012010BDC9
:1010700000207047D0F8B003C06850F82100017814
:101080001180704701490860704700001404014056
:1010900010B5064C6060084600F00CF86068002847
:1010A000FCD1BDE81040024800F071B904000020F6
:1010B000000400407FB5194D0446284600F067F94A
:1010C0000121284600F0B8F9022C02D0012C02D0F0
:1010D00004E00B2001E042F6DF6002901048008837
:1010E000ADF800000020ADF80400ADF80200ADF846
:1010F00006008DF80C006946284600F053F90121DE
:10110000284600F0A1F9284600F03CF901212846C4
:1011100000F096F9284600F03FF97FBD000400403A
:101120000400002000F00EF9FEE7000030B5254B6A
:101130001C68254D2C401C601C6804431C60B1F5E4
:10114000402F05D10028186837D02049084318607F
:101150001F49086840F0040008604FF0E02004696F
:101160001C4B1C60D0F800415C60D0F804419C60CE
:10117000D0F80841DC600469174D2C400461174C1D
:10118000C0F880416FF4E064C0F884414417C0F8AF
:101190008841A2B140BF20BF20BF1A6802615A68CF
:1011A000C0F800219A68C0F80421DA68C0F8082164
:1011B000086820F00400086030BD0949C6E730BF68
:1011C000EBE7000000700040FCF3F3FF00040C00AC
:1011D00010ED00E060040020040001003DF87FFFF6
:1011E00000080C00064A02EB9011096800F01F028B
:1011F00001209040014201D001207047002070473B
:1012000000100240054901EB90110A6800F01F032D
:101210000120984002430A6070470000001002401D
:10122000054901EB90110A6800F01F030120984066
:1012300002430A607047000000100240034A5168F0
:1012400021F003010143516070470000001002408B
:101250000248406800F00C00704700000010024097
:10126000034A516821F44001014351607047000076
:10127000001002402D4808B50268002142F4803277
:1012800002604FF6FF730268491C12F4003F01D15F
:101290009942F8D10168890300D4FEE7C16941F0A1
:1012A0008051C16122490A6842F440420A604268A2
:1012B000426042684260426842F480624260426832
:1012C0001C4B1A40426042681B4B1A434260C26A80
:1012D0001A4B1A40C262C26A194B1A43C2620268B0
:1012E00042F08062026002681201FCD5026842F09E
:1012F0008072026002689201FCD50A6842F4803272
:101300000A604A68D203FCD50A6842F400320A60D7
:101310004A689203FCD5416821F0030141F00201C3
:101320000091416041680907FCD508BD00100240EA
:1013300000700040FFFFC39F0000352000F0FEBF9B
:101340004906010070B50E484FF47A710068B0FB91
:10135000F1F0401EB0F1807F11D24FF0E0246061C7
:1013600065170F212846FFF7B4FC0020A061072075
:1013700020612846BDE870400021FFF7AABCFEE7C7
:1013800000000020016841F08001016070470168A1
:1013900021F0010101607047016841F00101016025
:1013A0007047000030B50A8882621C4A1C4B90428C
:1013B0000DD0B0F1804F0AD01A4CA04207D01A4C81
:1013C000A04204D0194CA04201D098420BD104682D
:1013D00024F07004046004684D882C4304600468A1
:1013E0008D882C4304608C68C462114CA0420CD0E0
:1013F000104CA0420DD0046824F4407404600468CA
:10140000CD882C430460904201D0984201D1097BE1
:101410000163416941F00101416130BD002C01408F
:10142000003401400004004000080040000C00406F
:101430000010004000140040C2688A43C260704738
:10144000C2680A43C2607047C9430161704781792D
:10145000002909D041698968C90705D0D0F8C800BA
:10146000016821F00301016070470000406B0149F1
:10147000016170471800086042691369526B00EB04
:101480008100CA40C06902F0010243EAC2128068CA
:10149000104070470346D21C9008DA6F02E01368D0
:1014A00041F8043B401EFAD208467047F0B5426945
:1014B00092684FF00104C2F341050A7802F00F036D
:1014C000160602F00F0200EB820202D5D2699C40A0
:1014D00003E0526B03F11006B4401668360411D4D1
:1014E00016680E4F3E40166093B115688E883543DE
:1014F00015601568497845EA8141094D45EA8353ED
:10150000194311604069C1692143C1610020F0BDE8
:101510001668044F7D5D2E431660EAE700F833FC41
:1015200000800010AA1D00080A78130602F00F02BE
:1015300000EB820001D5C06900E0406B026822F434
:10154000001202604978032901D0022903D1016801
:1015500041F080510160002070477CB50A7800247A
:1015600002F00F0200EB8205EB691E6801961B6911
:1015700003F060430093CB684BB18E885AB133447B
:101580005B1EB3FBF6F3009E46EAC3430AE0009BF2
:1015900043F4002311E0B34200D33346CB60009BF9
:1015A00043F400230093CB68009E334300934B78B1
:1015B000012B009B02D143F000530093EE6933618D
:1015C0004B78012B01D0019B0AE043699B68DB0546
:1015D000019B02D543F0805301E043F00053019397
:1015E00043F004430193ED692B60C3788BB94B78CA
:1015F000012B08D0C96861B14069416B0123934058
:101600001943416305E08B8989689BB2103000F073
:101610005AF820467CBDF0B50B78024603F00F0760
:1016200002EB87060020746B23682269D1F80CC096
:1016300002F060458A88BCF1000F0ED06FB10CEB50
:1016400002077F1EB7FBF2F745EAC7457A432A43F4
:1016500022614A78012A04D00AE02A4342F4002297
:10166000F6E7C97811B143F0005301E043F080532D
:10167000726B43F004411160F0BD09780A0601F075
:101680000F0100EB810008D5C0690168002905DA67
:10169000016841F08041016000E0406B016841F465
:1016A000001101600020704710B5202242EA81112C
:1016B00002681161006801698906FCD4032000F00A
:1016C0000FF8002010BD00EB8200DB1C9B08C06FF0
:1016D00002E051F8042B02605B1EFAD20020704732
:1016E0000221FFF7D5BC90F8CE20032A06D10A7953
:1016F000012A03D8D0F8B423D268104701207047DC
:1017000070B500F50E74054600216369A26800F00B
:101710008EF8A1886069884201D9032000E0042086
:1017200085F8AC03002070BD70B500F1D00405460B
:1017300000216369A26800F08CF8A1886069884282
:1017400001D9012000E0022085F8AC03002070BD23
:1017500010B504460620002384F8AC031A46194647
:10176000204600F064F82046FFF780FE002010BD00
:1017700010B504460520002384F8AC031A46194628
:10178000204600F066F82046FFF770FE002010BDEE
:101790002DE9F0470E4601EB460100EBC1048046FF
:1017A000D4E93701401AB4F8D410D034814200D2C1
:1017B0000846C01C870808EB86091DE0451AA0886A
:1017C000A84200D20546E81C8708ABB2F2B208F185
:1017D0001000A168FFF777FFA0682844A060206987
:1017E00028442061E168884206D1D8F81400426B91
:1017F0000121B1408A434263D9F81C00806980B25C
:10180000B84203D3D4E903018142D7D30120BDE814
:10181000F08710B50446802100F02CF80021204606
:1018200000F028F82046BDE81040FFF71FBE01F089
:101830007F0101EB410110B500EBC101C1E990232B
:101840000022C1F8482201F50E71FFF7E4FE0020E6
:1018500010BD01F07F0101EB410110B500EBC101AA
:10186000C1E936230022C1F8E020D031FFF775FE30
:10187000002010BD10B5CA0907D001F07F0101EBAF
:10188000410100EBC101D03105E001EB410100EB6A
:10189000C10101F50E7101228A70FFF7EEFE0020F2
:1018A00010BD10B5CA0907D001F07F0101EB41015D
:1018B00000EBC101D03105E001EB410100EBC101BA
:1018C00001F50E7100228A70FFF72EFE002010BD78
:1018D00070B5044621B194F8CE0003282DD032E033
:1018E00094F8AC0304F1D005012802D002282AD1D3
:1018F00007E0A9886869401A68612046FFF714FF6D
:1019000021E094F8AD03002640B100231A461946A1
:101910002046FFF79EFF84F8AD6314E094F8CE00F4
:10192000032805D1D4F8B403416909B1204688479A
:1019300020466E61FFF70CFF05E0D4F8B403C269DE
:101940000AB120469047002070BD2DE9F8430646B5
:10195000406900248169C0694FF08008084000F0A8
:101960003F0501271FE0E8071AD021463046FFF760
:1019700083FD0090C00707D006EB8400C069876034
:1019800021463046FFF7A4FF0098000608D52146FF
:101990003046FFF7FDFE06EB8401C969C1F80880F7
:1019A0006D08641CE4B2002DDDD10120BDE8F88390
:1019B000F8B50646406900248169C0690840C0F353
:1019C00005451DE0E80718D006EB84077A6B91689F
:1019D0007069406908400090C00705D00120906000
:1019E0002146304600F06AF90098000705D53046D8
:1019F00000F095F9796B082088606D08641CE4B2EA
:101A0000002DDFD10120F8BD70B5044640698CB0CF
:101A1000416821F001014160002104F11000FFF74D
:101A200043FE0020FF2106E004EB8002D3699960A9
:101A3000526B9160401CA2788242F5D861694FF0E8
:101A4000FF30886161694FF00110C8616169092048
:101A500048616069012505616069016821F4FE61E2
:101A600001602046FFF702FD216928034861182123
:101A70006846FEF739FC182214496846FEF702FC56
:101A800004F50E70182269460646FEF7FBFB314648
:101A90002046FFF70BFD182106A8FEF725FC0B4991
:101AA0001822183106A8FEF7EDFB04F1D000182229
:101AB00006A90646FEF7E6FB31462046FFF7F6FC90
:101AC00084F8CE500CB0012070BD0000B41D000899
:101AD000F8B505460069816921F010018161286926
:101AE000006A009000F00F0000EB400005EBC0041E
:101AF000009804F50E74C0F34342C0F30A16C0F315
:101B0000C13105F11000072A1ED2DFE802F01D1DC9
:101B1000041D1D1D0F00BEB13246A168FFF7BAFCBF
:101B2000A0683044A060206930440CE0227812079D
:101B30000AD1082E08D139B9082205F56971FFF7D5
:101B4000A9FC2069083020612869816941F01001F1
:101B500081610120F8BD00003EB50446006941697D
:101B6000C9077DD1416985690D4079D0280302D527
:101B70002046FFF71DFF680302D52046FFF7E5FE6C
:101B800028052ED5A0798DF800006069806800F0E6
:101B900001008DF8040094F8CE00032828D000201E
:101BA0008DF8080094F8CE0084F8CF00042084F863
:101BB000CE009DF8000080B19DF8040068B19DF84A
:101BC000080050B1D4F8C800016841F00301016079
:101BD000002211460120FFF7A9FA21694FF40060A5
:101BE0004861002D0EDA94F8CE00042802D005E0FA
:101BF0000120D5E794F8CF0084F8CE0021694FF09A
:101C000000404861280708D5D4F8B403416A09B1F7
:101C100020468847216908204861E80602D5204609
:101C2000FFF756FFE80402D52046FFF7EDFEA804B3
:101C300022D5606981684268C1F3410122F4807253
:101C400042606069426842F4807242602069C26802
:101C500022F47052C2601848405C032825D000E08E
:101C600022E0022020702069C16841F4A051C160C7
:101C700021694FF400504861E80209D5D4F8B40353
:101C8000816A09B12046884721694FF48010486174
:101C9000A80209D5D4F8B403C16A09B1204688471F
:101CA00021694FF4001048613EBD03202070206977
:101CB000C16841F41051DAE7B01D000870B5044660
:101CC00041B1D4F8B403026A22B394F8CE000328D9
:101CD00021D022E094F8AC0304F50E75032802D05D
:101CE00004281AD107E0A9886869401A686120466B
:101CF000FFF706FD11E094F8CE00032805D1D4F8D3
:101D0000B403816909B120468847002068612046F4
:101D1000FFF72EFD01E020469047002070BD1CB566
:101D20000446D4E9E901CDE900019DF8000010F076
:101D3000600004D0202807D040280FD109E0694670
:101D4000204600F023F808E069462046FFF7CBFC68
:101D500003E06946204600F021F828B16946204694
:101D6000FFF757FD00201CBDBDF8060038B19DF8F7
:101D700000000006204606D5FFF7D6FCF2E7204615
:101D8000FFF7F6FCEEE7FFF7BBFCEBE74A78024B08
:101D900053F8222010470000140000200020704754
:101DA0004FF04070E1EE100A7047000003000000A1
:101DB00003020102000000004000000000000000DB
:101DC0000000000000000000000000008000000093
:101DD00040000000000000000000000000000000C3
:101DE0000000000070040020800000000C1E0008AD
:101DF00000000020900000008C0100089C1E0008DC
:101E00009000002088100000A8010008000E27079D
:101E100009000000000000000000000000000000B9
:101E2000990E0008170D0008290F0008F50F00088B
:101E3000290F00082D0F0008AD0D0008F10F000854
:101E40007B0D0008750F0008690E00084710000898
:101E500071100008050D0008F30C0008751000084B
:101E60000000000000000000000000000000000072
:101E70000000000000000000000000000000000062
:101E80000000000000000000000000000000000052
:0C1E900000000000000000000000000046
:04000005080001519D
:00000001FF
