:020000040800F2
:10000000101B002065010008FD0300081F03000805
:10001000F903000817030008690500080000000044
:1000200000000000000000000000000005040008BF
:100030001B03000800000000010400087D01000807
:100040007F0100087F0100087F0100087F01000890
:100050007F0100087F0100087F0100087F01000880
:100060007F0100087F0100087F0100087F01000870
:100070007F0100087F0100087F0100087F01000860
:100080007F0100087F0100087F0100087F01000850
:100090007F0100087F0100087F0100087F01000840
:1000A0007F0100087F0100087F0100087F01000830
:1000B0007F010008510500087F0100087F0100084A
:1000C0007F0100087F0100087F0100087F01000810
:1000D0007F0100087F0100087F0100087F01000800
:1000E0007F0100087F0100087F0100087F010008F0
:1000F0007F0100087F0100087F0100080000000068
:100100007F010008000000007F0100087F01000857
:100110007F0100087F0100087F0100087F010008BF
:100120007F0100087F0100087F0100087F010008AF
:100130007F0100087F0100087F0100087F0100089F
:100140007F0100087F0100087F01000859050008B1
:10015000DFF80CD000F0A2F8004800477541000815
:10016000101B00200648804706480047FEE7FEE7D0
:10017000FEE7FEE7FEE7FEE7FEE7FEE7FEE7FEE757
:1001800009040008510100082DE9F05F0546002030
:1001900092469B4688460646814640241BE02846F8
:1001A00041464746224600F069F853465A46C01A6F
:1001B000914110D311461846224600F050F82D1AEE
:1001C00067EB01084F4622460120002100F047F866
:1001D00017EB00094E41201EA4F10104DFDC484664
:1001E00031462A464346BDE8F09F40EA01039B079B
:1001F00003D009E008C9121F08C0042AFAD203E09C
:1002000011F8013B00F8013B521EF9D27047D2B2FF
:1002100001E000F8012B491EFBD270470022F6E7EF
:1002200010B513460A4604461946FFF7F0FF20466C
:1002300010BD421C10F8011B0029FBD1801A704729
:1002400030B505460020034600E05B1C934205D212
:10025000EC5CC85C201A01D1002CF6D130BD202AFC
:1002600004DB203A00FA02F1002070479140C2F10D
:10027000200320FA03F3194390407047202A04DB3F
:10028000203A21FA02F00021704721FA02F3D0400F
:10029000C2F120029140084319467047064C074DB1
:1002A00006E0E06840F0010394E807009847103446
:1002B000AC42F6D3FFF750FF7CB801089CB80108A8
:1002C00070B58C1810F8015B15F0070301D110F818
:1002D000013B2A1106D110F8012B03E010F8016B45
:1002E00001F8016B5B1EF9D12B0705D40023521EC8
:1002F0000DD401F8013BFAE710F8013BCB1A921C30
:1003000003E013F8015B01F8015B521EF9D5A1422D
:10031000D8D3002070BD00BFFEE700BFFEE700BFDE
:10032000FEE700002DE9F04100240027A04600254B
:1003300003F068FC06462D480088072824D22B4885
:1003400000882B49098888421EDB284909882144F6
:1003500001EB4111274A02EB8101B1F8801088B20C
:1003600003F0E8FD21490988C91CF388594388B284
:100370001E490988214401EB41111E4B03EB810208
:10038000002103F0DFFD2FE0184800881849098894
:10039000884204DA15480088083087B201E0134823
:1003A0000788F81F1FFA80F800241BE004EB080000
:1003B00000F0070505EB45110E4A02EB8101B1F88B
:1003C000801088B203F0B6FD05EB4511094B03EB35
:1003D0008102F188E31C594388B2002103F0B2FD89
:1003E000601CC4B2082CE1D3BDE8F08150010020AC
:1003F0004E010020CC09002000BFFEE700BFFEE751
:1004000000BFFEE700BFFEE71CB54E48006840F4A1
:1004100070004C4908604C48006840F001004A49AF
:10042000086000BF4848006800F002000028F9D0CA
:100430004548406800F00C00082866D100BF002045
:10044000019002E00198401C019001985028F9D3D6
:100450003D4840680090009820F0F000009000981F
:1004600040F08000009038490098486000200190DA
:1004700002E00198401C019001985028F9D33248BD
:1004800040680090009820F0F0000090009840F044
:10049000900000902C49009848600020019002E0F4
:1004A0000198401C019001985028F9D326484068D3
:1004B0000090009820F0F0000090009840F0A0001C
:1004C00000902149009848600020019002E00198C6
:1004D000401C019001985028F9D31B4840680090B7
:1004E000009820F0F0000090009840F0B0000090DC
:1004F0001549009848600020019002E00198401CD6
:10050000019001985028F9D300BF0F48406820F0AF
:1005100003000D494860C82000F079FA0A480068D5
:100520000A490840084908604FF47F00886008467F
:10053000006820F48020086000204860C86204F051
:1005400065FB1CBD88ED00E000100240FFFFF6EAED
:1005500010B504F0DFFF10BD10B5024806F0BAF97F
:1005600010BD0000EC0D002000BFFEE70FB4054BEE
:1005700010B503A9044A029800F018F810BC5DF801
:1005800014FB0000C13000089001002002E008C800
:10059000121F08C1002AFAD170477047002001E0FD
:1005A00001C1121F002AFBD1704700002DE9FF4F47
:1005B0008DB00F460546002606E025280BD0DDE964
:1005C0000F1290476D1C761C28780028F5D111B0C9
:1005D0003046BDE8F08F0024A246A1460122EC4936
:1005E00000E0044315F8013F203B02FA03F0084203
:1005F000F7D128782A2810D06FF02F022878A0F1A0
:100600003001092914D80AEB8A0102EB410144F0B8
:10061000020400EB010A6D1CF0E701CF5FEA000A5B
:1006200003D544F40054CAF1000A44F002046D1CDE
:1006300028782E2817D115F8010F44F004042A2831
:100640000ED06FF02F022878A0F1300109290AD8C6
:1006500009EB890102EB410100EB01096D1CF2E796
:1006600057F8049B6D1C28786C280FD006DC4C28AA
:1006700017D068280DD06A2814D104E0742810D04F
:100680007A280FD10DE044F400140AE044F48014F9
:1006900001E044F440146978814202D104F58014E9
:1006A0006D1C6D1C2A786E2A1FD00CDC632A31D099
:1006B00004DC002A8BD0582A11D1A3E0642A68D028
:1006C000692A0CD165E0732A2ED004DC6F2A73D01E
:1006D000702A04D19BE0752A6FD0782A6ED010461C
:1006E000DDE90F129047761C50E1C4F30250022856
:1006F00006D0032809D0042801CF09D0066045E1BF
:1007000001CFF117C0E9006140E101CF06803DE172
:1007100006703BE117F8040B8DF8000000208DF8FF
:100720000100EB46012003E057F804BB4FF0FF3017
:1007300061074FF0000102D40DE008F10101884685
:1007400049450FDA8045F8DB1BF808100029F4D181
:1007500008E008F1010188468142FADB1BF8081025
:100760000029F6D1DDE90F23AAEB080081462146D6
:1007700000F036F9304400EB080604E0DDE90F1222
:100780001BF8010B9047B8F10108F7D22146484603
:10079000F7E00A21C4F302534FF0000B0891022B3B
:1007A00004D001CFC117032B09D00AE0FF1D27F0A9
:1007B0000707F7E8020108E032E01FE020E000B29E
:1007C000C117042B01D140B2C117031E71F1000300
:1007D00007DA4FF0000CD0EB0C006CEB01012D237D
:1007E00002E0230504D52B238DF82430012303E0F8
:1007F000E30701D02023F7E7984658E00A2110E0EC
:1008000010210EE010204FF0000B08900CE010219A
:100810004FF0000B44F004044FF00809089103E086
:1008200008214FF0000B0891C4F30253022B04D0AF
:1008300001CF0021032B06D006E0FF1D27F007079C
:10084000F7E8020103E080B2042B00D1C0B24FF000
:10085000000823072BD5702A07D0DDF820C08CF0C4
:10086000100C5CEA0B0C05D00EE040238DF8243010
:10087000012308E050EA010306D030238DF824302C
:100880008DF8252002239846DDF820C08CF0080C56
:100890005CEA0B0C0BD150EA010301D1630706D5CA
:1008A00030238DF824304FF00108A9F10109582AAE
:1008B00004D038A20B9208AA0A920BE03AA2F9E7F8
:1008C0005B46089AFFF760FC0B9B9B5C0A9A521EE2
:1008D0000A92137050EA0102F2D10A98ADEB0000BF
:1008E00000F1200B600702D524F4803401E04FF0C2
:1008F0000109D94502DDA9EB0B0000E0002000EB67
:100900000B0141440890AAEB010AE00306D4DDE99B
:100910000F232146504600F063F806444FF00009CB
:1009200008E009A911F80900DDE90F12904709F163
:100930000109761CC145F4DBE0030CD5DDE90F238A
:100940002146504600F04CF8064404E0DDE90F1261
:1009500030209047761C0899481E08900029F5DC45
:1009600008E00A980A990078491C0A91DDE90F12FB
:100970009047761CBBF10001ABF1010BF1DC214685
:100980005046DDE90F2300F019F806446D1C1BE604
:100990000928010030313233343536373839616255
:1009A0006364656600000000303132333435363719
:1009B0003839414243444546000000002DE9F041EA
:1009C000044600251E461746880404D405E039462F
:1009D0002020B0476D1C641EF9D52846BDE8F08183
:1009E0002DE9F041044600251E469046C80301D576
:1009F000302700E02027880404D505E0414638462A
:100A0000B0476D1C641EF9D52846BDE8F08108B5D5
:100A10000021009102E00099491C009100EB800147
:100A2000009AB2EB410FF6D308BD2DE9F04704461A
:100A30000D4690469946AD1E606B00EB153AC5F326
:100A4000C80605F0070101208840C7B200BF514623
:100A50000AF1010A204603F0D1FB10B10120BDE8E4
:100A6000F08700BF00BF04F13C00805D384008B152
:100A7000012000E00020484501D10220EFE704F109
:100A80003C00805D784004F13C0188550120E07015
:100A9000A8F10100B0F1000800D1E0E77806000EEF
:100AA000071EE0D10127701C0646B0F5007FD9D3A0
:100AB0000026CCE770B504460D460020E070401ECD
:100AC000A0632946204603F099FB08B1042070BDBD
:100AD00004F23A2003F0A1FA4AF65521884201D0E7
:100AE0000320F4E70B2214A104F13C0003F05EFBA9
:100AF00008B90120EBE794F83C00E92807D094F806
:100B00003C00EB2803D094F83C00E82811D10322E4
:100B10000CA104F1720003F049FB08B90020D6E7EC
:100B2000052209A104F18E0003F040FB08B9002062
:100B3000CDE70220CBE70000EB76904558464154C4
:100B4000202020004641540046415433320000002A
:100B5000024600E0521C107810B110788842F9D19A
:100B6000107870470246891ED069801E884201D8DD
:100B7000002070475389106B03FB0100F9E7000068
:100B80002DE9F04780460C4604F11A0003F045FABF
:100B900010B10020BDE8F087207800F03F00401E33
:100BA00000EB800101EBC0054FF00109002621E0B8
:100BB0001849895D081903F030FA0746B9F1000FAA
:100BC00011D0FF2D0BD2384601F0C2FE82462946D5
:100BD0006D1C38F8110001F0BBFE824501D00020E9
:100BE000D8E7B94605E04FF6FF70874201D00020F4
:100BF000D0E7761C0D2EDBD3207800F0400038B112
:100C0000B9F1000F04D038F8150008B10020C1E791
:100C10000120BFE7A8CE00082DE9F04706468A4626
:100C20003468BAF1000F0AD1D4F81480B8F1000F7B
:100C300002D0E069404516D84FF0010813E0514654
:100C4000304602F003FC0746022F02D20120BDE825
:100C5000F087781C08B93846F9E7E069B84201D94D
:100C60003846F4E7D046A06908B90020EFE72078BD
:100C700004284ED101224146204601F0FEFE0546E1
:100C80000DB1681C08B92846E1E701231A46294638
:100C90002046FFF7CAFE8146B9F1020F01D10120BB
:100CA000D5E7B9F1010F02D14FF0FF30CFE7BAF12C
:100CB000000F02D10220F0710CE0F079022809D176
:100CC00008F10100854205D0B068A8EB0000B061D2
:100CD0000320F071F079022869D00AF10100854201
:100CE00007D1F06910B1F069401C00E00220F0610A
:100CF0005DE0F06908B90120F0612A4651463046AE
:100D000001F099FE8146B9F1000F50D10120F06148
:100D10004DE00025D04519D108F10105E069A84250
:100D200000D802252946304602F090FB0746012FE5
:100D300001D0781C08B9384689E73FB16769022FAE
:100D400003D3E069B84200D9B8460025E5B9454665
:100D500000BF6D1CE069A84204D80225454501D9B1
:100D6000002074E72946304602F070FB074607B9B9
:100D700009E0012F01D0781C08B9384667E74545DE
:100D8000E7D1002063E700BF4FF0FF32294620463D
:100D900003F0FEFA8146B9F1000F08D1BAF1000F55
:100DA00005D02A465146204603F0F2FA8146B9F1B1
:100DB000000F0DD16561D4E90610801E814202D872
:100DC000A069401EA061207940F00100207107E079
:100DD000B9F1010F02D14FF0FF3000E001200546CC
:100DE000284634E72DE9F34F85B081460698006820
:100DF0000290D9F80000D0F80CA0002500BF02A88E
:100E000003F008FF83460BF1010018B9062007B074
:100E1000BDE8F08FBBF5803F05D34FEA1B42284663
:100E20006D1C2AF810201FFA8BF4202C03DB2F2CCA
:100E300001D05C2C00D111E0802C06DA214679A08B
:100E4000FFF786FE08B10620E1E7FF2D01D306205B
:100E5000DDE728466D1C2AF81040D0E700BF02E00D
:100E60000298401C0290029800782F28F8D002982F
:100E700000785C28F4D0029906980160202C01DAF1
:100E8000042000E00020064608E0681E3AF8104002
:100E9000202C02D02E2C00D002E06D1E002DF4D1AB
:100EA00000BF00202AF815000DB90620AFE7002783
:100EB00000E07F1C3AF817002028FAD01FB93AF852
:100EC00017002E2801D146F0030600E06D1E25B163
:100ED000681E3AF810002E28F8D10B22202109F1C3
:100EE000400003F082F94FF00008CDF81080082090
:100EF000039000BF38467F1C3AF8104004B966E002
:100F0000202C03D02E2C04D1AF4202D046F0030691
:100F1000F0E7DDE90310884201D2AF4216D1039811
:100F20000B2802D146F0030651E0AF4201D046F053
:100F30000306AF4200D94AE02F46082004900B2058
:100F400003904FEA88604FEA1068D3E7802C0ADBF1
:100F500046F00206204601F0FBFC4FF46971019057
:100F600001F0BCFC0446FF2C11DD0398401E0499DF
:100F7000884204D846F0030603980490BAE7221288
:100F80000498411C049109F140010A5418E024B16D
:100F9000214627A0FFF7DCFD18B15F2446F00306C9
:100FA0000EE0412C03DB5A2C01DC48F00208612CD6
:100FB00006DB7A2C04DC48F00108A4F1200084B29E
:100FC0000498411C049109F140010C5492E700BFC0
:100FD00099F84000E52802D1052089F840000398DF
:100FE000082803D14FEA88604FEA106808F00C0027
:100FF0000C2803D008F00300032801D146F00206B4
:1010000006F0020048B908F0010008B146F01006E9
:1010100008F0040008B146F008064B2000F809600B
:101020000020F4E6222A3A3C3E3F7C7F000000008C
:101030002B2C3B3D5B5D00002DE9F04704460E463E
:1010400040220021204603F0D0F885202070C020E7
:1010500084F8200040250020804607464FF0010913
:1010600000BFC12228466D1C2254002228466D1C58
:10107000225400BFB9F1000F06D036F81700B0F1C6
:10108000000901D0781CC7B26019494603F061FC21
:10109000AD1C05F01F000028ECD108F1010000F0A4
:1010A000FF0836F817000028DBD184F8237008F118
:1010B00001006070304607F0D6FC8246514604F1CC
:1010C000240003F046FCBDE8F087000001460B4811
:1010D000007888420FDC09484078884201DB012013
:1010E000704706488078884205DC0448C07888420A
:1010F00001DB0120F4E70020F2E70000B5CE000894
:10110000014610480079884219DC0E48407988422F
:1011100001DB012070470B488079884205DC0948D3
:10112000C079884201DB0120F4E70648007A884252
:1011300005DC0448407A884201DB0120EAE7002010
:10114000E8E70000B5CE00082DE9F04104460E4660
:10115000D4F800800021204600F036FB05465DBB38
:10116000002700BF4046A16B03F048F8054605B1D3
:1011700021E098F80000042805D1E06B00780121F7
:1011800021EAD01009E0E06B0078E52802D0E06B9E
:10119000007808B9012000E0002020B1781C074643
:1011A000B04201D107E000270121204600F00EF9EE
:1011B0000546002DD6D000BF042D00D107252846B6
:1011C000BDE8F0812DE9F04704468946204603F04A
:1011D00057FC10B10120BDE8F08749462046FFF7D3
:1011E000C1FC0646A6634FF40072002104F13C00E6
:1011F00002F0FBFF04F13C080127002500E03D441C
:101200006089A84207D9721960783B46414600F0D0
:10121000BFFB0028F3D06089A84201D00120DAE7A3
:101220000020D8E72DE9F04F85B00446256800215D
:10123000204600F0C9FA07461FB1384605B0BDE8A0
:10124000F08F287804284CD1E86807F00CFC019056
:101250003EE0296901F1240002F0DFFE0199884295
:1012600000D035E0286990F8230003904FF0400A41
:10127000002002901FE00AF01F0008B90AF1020ADC
:10128000296901EB0A0002F0C8FE009001F060FB42
:101290008346EA68029932F8110001F059FB834550
:1012A00000D00BE00398401EC0B203900AF1020A7E
:1012B0000298401C029003980028DCD100BF0398DC
:1012C00028B9E968029831F8100000B906E000BFBB
:1012D0000021204600F0EAF8071EBAD000BF3846C9
:1012E000ACE74FF0FF09CDF810904FF0FF30E0640D
:1012F00000BF2846A16B02F081FF074607B162E0FC
:10130000E06B06780EB904275DE0E06BC07A00F070
:101310003F0884F80680E52E05D008F0080040B1AB
:10132000B8F10F0F05D04FF0FF094FF0FF30E06428
:1013300042E0B8F10F0F22D14B20005D00F04000D9
:10134000A0BB06F0400038B1E06B407B049006F093
:10135000BF06B146206BE0644E450CD1E06B417B8B
:101360000498814207D1E16BE868FFF709FC10B1EE
:10137000A9F1010000E0FF2000F0FF091CE0B9F135
:10138000000F06D1E06B03F023FB0499884200D1E3
:1013900019E04B20005D00F0010040B90B2204F180
:1013A0004001E06B02F002FF08B90CE004E04FF0EE
:1013B000FF094FF0FF30E0640021204600F006F8FE
:1013C0000746002F95D000BF384637E72DE9F0419A
:1013D000044688462768206B00F1200638780428E8
:1013E00001D1800601E04FF40010B04201D8002086
:1013F000A063A06B10B90420BDE8F081C6F308001B
:1014000000284AD1A06B401CA063606B38B93889B2
:10141000B0EB561F41D80020A0630420ECE7788988
:10142000401E00EA5620002837D12046616B02F0AA
:101430000DF80546012D01D80220DDE7681C08B92A
:101440000120D9E7F869A84221D8B8F1000F03D1EB
:101450000020A0630420CFE72046616BFFF7DCFB90
:1014600005460DB90720C7E7012D01D10220C3E7CA
:10147000681C08B90120BFE729463846FFF7A2FEDD
:1014800008B10120B8E7E07940F00400E07165633D
:1014900029463846FFF766FBA0632663C6F30801BA
:1014A00007F13C000844E0630020A5E72DE9F05F68
:1014B00004468A46042627684FF0FF09CB4667E0BA
:1014C0003846A16B02F09AFE064606B163E0E06B77
:1014D00005780DB904265EE0387804280FD100BFE6
:1014E000852D4ED1206BE064204602F0BCFD0646FF
:1014F00026B93869007900F03F00A0714BE0E06B3D
:10150000C07A00F03F0884F80680E52D0AD02E2D21
:1015100008D028F02000082801D1012000E0002098
:10152000504502D04FF0FF092BE0B8F10F0F1CD14E
:1015300005F0400038B1E06B90F80DB005F0BF0544
:10154000A946206BE0644D450BD1E06B407B5845CC
:1015500007D1E16BF86802F0D7FE10B1A9F10100E4
:1015600000E0FF2000F0FF090BE0B9F1000F04D10B
:10157000E06B03F02DFA584502D04FF0FF30E064E5
:1015800009E000212046FFF721FF064606B102E0F0
:10159000A06B002894D100BF0EB10020A06330469C
:1015A000BDE8F09F2DE9F04F99B0044626684B2026
:1015B000005D00F0A00018B1062019B0BDE8F08F62
:1015C0004FF0000B01E00BF1010BF06830F81B004D
:1015D0000028F8D13078042866D10BF10E000F21D5
:1015E000B0FBF1F000F1020949462046FFF7ACFDDF
:1015F00005460DB12846E0E7A9F101002022216B44
:1016000002FB1010E064E07900F00400002845D0EF
:10161000E07920F00400E071204601F0F1F9054680
:101620000DB12846C9E74FF0FF322046616B01F04B
:1016300002FA05460DB12846BFE7A06870B32146FF
:10164000684602F0F0FC05460DB12846B5E7708902
:101650004002D4E90431181841F10001C4E9040141
:10166000D4E90473316901F138003A4603F043F9D3
:10167000D4E90473316901F128003A4603F03BF9DB
:10168000E07940F00100316981F82100684603F0FB
:1016900066F905460DB128468FE700BFD6E903106D
:1016A000FFF7CAFC002088E70C2204F1400115A8CE
:1016B00002F08EFD9DF85F0000F0010028B340218C
:1016C0004B2001554FF0010A0EE0534615A904F1D5
:1016D0004000F26801F054FE2046FFF7A3FD0546E6
:1016E00005B104E00AF1010ABAF1640FEDD300BFBD
:1016F000BAF1640F01D107205FE7042D01D028461D
:101700005BE79DF85F104B2001559DF85F0000F0EE
:10171000020030B10BF10C000D21B0FBF1F0401CC8
:1017200000E00120814649462046FFF70DFD0546B1
:1017300075BBA9F10100B0F1000929D0206BA0EB25
:101740004911204600F040F805460DBB04F1400069
:1017500003F03EF9149000BF3046A16B02F04EFD3D
:10176000054605B113E009F0FF02E16BF068149B38
:1017700002F0B0FE0120F07000212046FFF726FEA7
:10178000054625B9A9F10100B0F10009E4D100BF77
:10179000C5B93046A16B02F031FD054695B920224E
:1017A0000021E06B02F021FD0B2204F14001E06B0F
:1017B00002F00EFD4B20005D00F01800E16B087395
:1017C0000120F0702846F8E62DE9F04104460D4668
:1017D00026683078042801D1800601E04FF400101B
:1017E000A84202D905F01F0010B10220BDE8F08127
:1017F0002563A7682FB93078032802DBF76A002039
:10180000E07147B93089B0EB551F01D80220EDE7F0
:10181000F06AA0631CE070894FEA402811E0394665
:10182000204601F013FE0746781C08B90120DDE7C9
:10183000022F02D3F069B84201D80220D6E7A5EB07
:1018400008054545EBD239463046FFF78BF9A063D2
:101850006763A06B08B90220C8E7A06B00EB5520B6
:10186000A063C5F3080106F13C000844E0630020D2
:10187000BCE7000002460748D0F84013D1F8CC007E
:1018800028B10548007820F00100034B1870024889
:1018900000787047940100208C010020F0B58FB0D3
:1018A00005460E461446002715B104200FB0F0BDC2
:1018B00001271748007800F0010008B10320F5E780
:1018C00036B1012E06D0022E0ED0032E1BD116E00B
:1018D00000271AE06A4629460E4805F0E9FC10B9CF
:1018E00004982060002710E06A462946094805F060
:1018F000DFFC18B9BDF814002080002705E04FF484
:101900000070206001E0042700BF00BF3846CDE72B
:101910008C010020940100202DE9F84304460E4676
:1019200091461D4600271348D0F8408304B915B9E5
:101930000420BDE8F8831048007800F0010008B1E9
:101940000320F6E7D8F8CC0078B100BF33464A460A
:1019500021460848009505F07BFD0746D8F8CC00E5
:1019600008B90120E5E7012FF0D00FB90020E0E72A
:101970000120DEE7940100208C010020014609B11E
:101980000120704701480078FBE700008C0100202F
:101990002DE9F84304460E4691461D460027174898
:1019A000D0F8408305B114B10420BDE8F883144891
:1019B000007800F0010008B10320F6E71048007835
:1019C00000F0040008B10220EFE7D8F8CC0078B1AD
:1019D00000BF33464A4621460848009505F064FF9B
:1019E0000746D8F8CC0008B90120DEE7012FF0D077
:1019F0000FB90020D9E70120D7E7000094010020AB
:101A00008C01002000B597B04FF4A16002F094FE65
:101A100040F2056002F090FE40F2066002F08CFE9B
:101A20004FF4C16002F088FE4CF2037303221821C8
:101A3000224801F087FF4FF68073032218212048C7
:101A400001F080FF0423032218211D4801F07AFFD2
:101A5000302303221821194801F074FF8023032248
:101A60001821164801F06EFF0020019002900390AB
:101A7000022004900A20059002200690052007907D
:101A80000020089009900A900B900C9001200D9076
:101A900000200E900F9010901190102012900020B6
:101AA0001390149001A81590169008A800F016F84D
:101AB000012000F007F817B000BD0000001401403D
:101AC00000180140C100A1F1C041096841F00102C4
:101AD000C100A1F1C0410A607047000070B500214B
:101AE000002200230468E400A4F1C0442168414CB2
:101AF0002140D0E90B4544EA4504856A2C43456AF8
:101B000044EA0524056A2C43C56944EA85248569AD
:101B10002C43456944EA0534056944EA453485683F
:101B200044EA8534C56844EAC53445682C432143FA
:101B3000446B247E641E04F00F04456B6D696D1EBA
:101B4000F02606EA05152C43456B2D696D1E4FF4F2
:101B50007F4606EA05252C43456BAD896D1E4FF483
:101B6000702606EA05452C43456BAD682C43456B52
:101B70006D682C43456B2D6844EA0502C46A082C45
:101B800001D141F040018468012C20D1846B247E76
:101B9000641E04F00F04856B6D696D1EF02606EA65
:101BA00005152C43856B2D696D1E4FF47F4606EAA3
:101BB00005252C43856BAD896D1E4FF4702606EA12
:101BC00005452C43856B2D6844EA050301E06FF061
:101BD00070430468E400A4F1C04421600468E40098
:101BE000A4F1C04462600468E400A4F1C044C4F8F5
:101BF000043170BD8100F7FF70B5DCB005460C46BE
:101C00002946684600F0C9FA42490870084600783B
:101C100000287AD173E014A9684600F00FFC3D4912
:101C200008700846007810B99DF86A0000B96BE0AA
:101C30009DF86A002E2800D161E00DF16A06364851
:101C40000078401C344908700846007804281BD9E5
:101C5000002008704FF4FC6002F06CF92FA2002104
:101C6000BE2002F06FF936A20021D22002F06AF9FC
:101C700001E003F069F83948D0F8CC0020B1022027
:101C800001F01EFB0128F4D0012C08D100BF4FF653
:101C9000FF703349086033A0FEF768FC0AE0022CAD
:101CA00008D100BF4FF6FF702D4908602FA0FEF746
:101CB0005DFC00BF9DF85C0010280AD100BF4FF604
:101CC000FF70274908600DF16A012BA0FEF74EFC5A
:101CD0000AE000BF4FF6FF70214908600DF16A016C
:101CE00025A0FEF743FC00BF9DF85C00102805D13D
:101CF000012C03D102213046FFF77EFF00BF1748B9
:101D0000D0F8CC00002886D100BF024800785CB033
:101D100070BD0000000000200100002020202020D5
:101D200020202020202020202020202020202020B3
:101D30002020202020202020202020200000000023
:101D400050726573732055736572204B65792074EA
:101D50006F20636F6E74696E75650000EC0D002076
:101D6000480100202020207C5F5F00002020207C94
:101D70002020207C5F5F000025730D0A000000001A
:101D800010B52D4B1B6883432B4C2360231D1B6810
:101D90008343241D2360231D1B688343241D23606C
:101DA000231D1B688343241D236011B101290ED11B
:101DB00005E0214B1B6803431F4C236008E01E4BCA
:101DC0001B1D1B6803431C4C241D236000E000BF47
:101DD00000BF32B1012A11D0022A1CD0032A27D118
:101DE00027E0154B08331B680343134C083423606A
:101DF000231D1B688343241D23601BE00E4B083307
:101E00001B6883430C4C08342360231D1B68034369
:101E1000241D23600EE0084B08331B680343064C67
:101E200008342360231D1B680343241D236001E045
:101E300000BF00BF00BF10BD0004014001490860A1
:101E4000704700001404014038B50546284600F0EC
:101E50001CFB04463CB96946284606F0C9FD044609
:101E60000CB900202860204638BD0000F7B582B0CC
:101E700016460398019001A801F07BFC0546002D51
:101E800002DA0B2005B0F0BD0C4850F825400CB12B
:101E900000202070029810B10020029908700749B4
:101EA000029841F825000EB90020EBE7002202A9B4
:101EB00003A800F035FE07463846E3E79C120020F1
:101EC0002DE9F74F98B0044616461CB909201BB0FF
:101ED000BDE8F08F06F03F06324603A919A800F0CE
:101EE0001FFE0546002D7DD10398049004A8199982
:101EF00001F084F805462DB99DF85B0000F08000E4
:101F000000B1062506F01C0000286CD045B1042D58
:101F100003D104A8FFF746FB054646F008060AE091
:101F20009DF8160000F0110008B1072503E006F047
:101F3000040000B10825002D42D106F00800002859
:101F40003ED00398007804283BD1039820602146B6
:101F5000039801F0ABFD03990969881C1E2200213A
:101F600002F043F90399096901F126001A220021C0
:101F700002F03BF9202003990969087101F02EFB5A
:101F800000900399096901F10800009902F0A7FC8B
:101F900001200399096981F8210004A802F0DFFCFF
:101FA0000546002D57D1A068002854D000222046B5
:101FB000A16802F0DDFB0546A068401E0399486158
:101FC00049E01399039801F0D8FF834601F006FB1E
:101FD0000090139901F10E00009902F080FC20207E
:101FE000139901E0BFE025E0C8720022139903981D
:101FF00002F063FC139901F11C00002102F06FFC58
:1020000001200399C870BBF1000F24D00398806BA6
:1020100002900022594604A802F0AAFB0546D5B951
:10202000DDE9021002F0EAF80546ABF10100039980
:10203000486110E07DB99DF8160000F0100008B16D
:10204000042508E006F0020028B19DF8160000F013
:10205000010000B107254DB906F0080008B146F0AF
:1020600040060398806BA0641398E064002D7AD139
:102070000398007804280FD106982062089820F071
:10208000FF009DF81710084360621798A062214670
:10209000039801F00BFD0CE01399039801F06DFF1C
:1020A000A060139901F11C0001F07AFF0021C4E93E
:1020B0000401039820600398C088A08084F83060F1
:1020C000002084F8310060640021A163E1634FF4D3
:1020D000007204F1500002F088F806F02000002899
:1020E00056D00023D4E904105940584001434FD042
:1020F000D4E90401C4E90E01039840894FEA40295C
:10210000D4F808A0D4E9047810E05146204601F044
:102110009DF98246BAF1010F00D802250AF10100AB
:1021200000B90125B7EB090768F100082DB90020B7
:10213000B9EB070170EB0800E7D3C4F840A095B9EC
:102140004FF40072002338464146FEF71DF8002187
:102150004A404B401A431BD051460398FEF702FDFC
:10216000019008B9022513E04FF4007200233846AD
:102170004146FEF709F8019908446064626C0399CE
:102180004878012304F15001FFF7C6FB00B1012597
:102190000DB100202060284699E633B581B0044691
:1021A0000CB909203EBD0022694602A800F0B8FC27
:1021B0000546002D36D1009820602046029900F097
:1021C0001DFF05465DBB4B20005D00F08000E8B9B7
:1021D000A07900F01000C0B10098007804280ED15A
:1021E000A0682062206920F0FF00E1790843606266
:1021F000E06CA0622146009801F058FC06E0E16B1B
:10220000009801F0BAFEA06000E005253DB90098F5
:10221000C088A08000212046FFF7D6FA0546042D8D
:1022200000D105250DB1002020602846BAE72DE930
:10223000FF4F87B0044615460898039000210A987E
:10224000016005A9204606F0D3FB0690069818B950
:1022500094F83100069018B106980BB0BDE8F08FE5
:1022600094F8300000F0010008B90720F5E7D4E940
:102270000430D4E90E125F1A60EB0208791B78F182
:10228000000000D23D46D4E0D4E90E014FF40072C4
:102290000023CDE90001FDF777FF00214A404B40C4
:1022A0001A4370D1D4E90E014FF400720023CDE936
:1022B0000001FDF769FF05994989491E00EA010AF5
:1022C000BAF1000F1ED10023D4E90E105940584036
:1022D000014302D1A068049004E02046216C01F083
:1022E000B5F804900498022803D2022084F8310043
:1022F000B3E70498401C18B9012084F83100ACE71A
:1023000004982064216C0598FEF72CFC8146B9F1F5
:10231000000F03D1022084F831009EE7D1444FEA38
:10232000552BBBF1000F2FD00AEB0B000599498903
:10233000884203D905984089A0EB0A0B0599487893
:102340005B464A460399FFF7E7FA18B1012084F883
:10235000310082E794F8300000F0800080B1606CBA
:10236000A0EB090058450BD2616CA1EB0901039A5F
:1023700002EB41204FF4007204F1500101F028FFFC
:102380004FEA4B2645E029E0606C484524D094F89C
:10239000300000F0800090B1626C0599487801230C
:1023A00004F15001FFF7F4FA18B1012084F831006C
:1023B00053E794F8300000F07F0084F8300005996E
:1023C000487801234A4604F15001FFF7A5FA18B1F5
:1023D000012084F8310040E7C4F84490208FC0F316
:1023E0000800C0F50076AE4200D92E46D4E90E01B1
:1023F0004FF400720023CDE90001FDF7C5FE04F1A2
:1024000050001044324601460290039801F0E0FE6D
:1024100000BFAD1B0A98006881190A9801600398F3
:1024200030440390D4E90E20921940F10000C4E931
:102430000E20002D7FF428AF00200EE7F8B50646E9
:102440000D466946304606F0D3FA0446DCB92DB98C
:1024500000213046FFF7B8F9044614E00021304669
:10246000FFF724F80446042C00D100245CB9294667
:10247000304601F0B7F800213046FEF7A7FF0446CA
:10248000042C00D100242046F8BD2DE9F04395B07E
:10249000044614A9204606F0ABFA0546002D7DD16E
:1024A00094F8300000F04000002877D094F8300015
:1024B00000F0800090B1626C14994878012304F117
:1024C0005001FFF765FA18B1012015B0BDE8F0839F
:1024D00094F8300000F07F0084F8300001F07EF8BE
:1024E000814614980078042860D1204600F088FACC
:1024F000054635B94FF0FF322046216C00F09BFABB
:102500000546002D7ED12146684601F08CFD05462A
:10251000002D4AD114980069007940F020001499E8
:1025200009690871E07940F001001499096981F89E
:102530002100A168149A126902F1340002F0CFF967
:10254000D4E904731499096901F138003A4602F09C
:10255000D2F9D4E904731499096901F128003A46C3
:1025600002F0C9F91499096901F10C00494602F019
:10257000B6F900201499096948751499096901F19F
:102580001000002102F0ABF9684602F0E8F90546B8
:102590005DB9149802F02CFA054600E032E094F898
:1025A000300000F0BF0084F830002BE0A16C1498DC
:1025B00001F024FE05462DBBE66CF07A40F02000C9
:1025C000F0723146A268206802F077F906F11C002B
:1025D000216902F084F9494606F1160002F07FF9FC
:1025E000002106F1120002F0B4F901201499C8701C
:1025F000149802F0FDF9054694F8300000F0BF0091
:1026000084F83000284660E72DE9FF4F87B0044684
:1026100015469B46089803900020CBF8000004A9BB
:10262000204606F0E5F90590059818B994F83100B0
:10263000059018B105980BB0BDE8F08F94F8300004
:1026400000F0020008B90720F5E704980078042894
:1026500007D0A06B4019A16B884202D2A06BC0F1D9
:10266000FF35FAE0D4E90E014FF400720023CDE902
:102670000001FDF789FD00214A404B401A437DD1FE
:10268000D4E90E014FF400720023CDE90001FDF7FB
:102690007BFD04994989491E00EA010ABAF1000F3D
:1026A0002ED10023D4E90E015840594008430AD1E5
:1026B000D4F80880B8F1000F0AD100212046FEF7B7
:1026C000ABFA804604E02046216CFEF7A5FA80466E
:1026D000B8F1000F00D1C3E0B8F1010F03D102201F
:1026E00084F83100A7E708F1010018B9012084F847
:1026F0003100A0E7C4F84080A06808B9C4F8088099
:1027000094F8300000F0800090B1626C0499487831
:10271000012304F15001FFF73BF918B1012084F8BF
:10272000310088E794F8300000F07F0084F8300032
:10273000216C0498FEF716FA07461FB9022084F8A8
:10274000310078E757444FEA5529B9F1000F2ED0F0
:102750000AEB090004994989884203D90498408901
:10276000A0EB0A09049948784B463A460399FFF7CB
:102770000FF920B1012084F831005CE72FE0606C94
:10278000C01B484510D2606CC01B039A02EB40216D
:102790004FF4007204F1500001F01AFD94F830007B
:1027A00000F07F0084F830004FEA492637E0606C83
:1027B000B84213D0D4E90E30D4E904219A1A8841E2
:1027C0000CD20499487801233A4604F15001FFF7EE
:1027D000A3F818B1012084F831002CE76764208F3A
:1027E000C0F30800C0F50076AE4200D92E46D4E909
:1027F0000E014FF400720023CDE90001FDF7C4FC87
:1028000004F15000104432460290039901F0E0FCBC
:1028100094F8300040F0800084F8300000BFAD1B19
:10282000DBF800003044CBF80000039830440390FC
:10283000D4E90E20921940F10000C4E90E20D4E939
:102840000430D4E90E219A1A884102D2D4E90E014B
:1028500001E0D4E90401C4E90401002D7FF402AFD2
:1028600000BF94F8300040F0400084F830000020B1
:10287000E1E60000F0B502460E4600200021802A65
:1028800001DA104627E0B6F5697F24D1124B41F6F4
:10289000DD470025102414E0A7EB050C05EB5C01D7
:1028A0004FEA410C33F81CC0944500D10BE04FEACD
:1028B000410C33F81CC0944501DA0D4600E00F4688
:1028C000641E002CE8D100BF2CB14FF0010C0CEBC2
:1028D000410C33F81C00F0BD544201082DE9F041D1
:1028E00002460F4600200021802A01D290B22BE040
:1028F000B2F5803F28D2B7F5697F25D195B2134B49
:1029000041F6DD4C0026102414E0ACEB060806EB83
:1029100058014FEA410833F81880A84500D10BE070
:102920004FEA410833F81880A84501DA0E4600E066
:102930008C46641E002CE8D100BF2CB14FF001087A
:1029400008EB410833F81800BDE8F081DCCE000840
:1029500070B5B0F5803F4DD281B2B1F5805F01DA3C
:10296000254E00E0254E324600BF32F8023B0BB147
:10297000994200DA3CE032F8024B2512E4B21E190B
:102980008E4230DD092D2CD2DFE805F005090F134A
:10299000171B1F232700CE1A32F8161021E0CE1A7B
:1029A00006F001068E1BB1B21BE0A1F11006B1B218
:1029B00017E0A1F12006B1B213E0A1F13006B1B2E7
:1029C0000FE0A1F11A06B1B20BE001F10806B1B2B5
:1029D00007E0A1F15006B1B203E0A1F5E356B1B2B0
:1029E00000BF00BF04E0002DBFD102EB4402BCE7F2
:1029F00000BF084670BD0000CCB50108BEB7010895
:102A00002DE9F0410446E079032812D1A568A769B1
:102A10000BE06A1C2946206801F0BAFC064616B194
:102A20003046BDE8F0816D1C7F1E002FF1D10020E3
:102A3000E0710020F5E72DE9F04104460D46174608
:102A400016E0E369012B03D9E369EB1A9B1C00E054
:102A50003B461A46E369EB1A591C206801F098FCC2
:102A6000064616B13046BDE8F081E069401EE061DF
:102A7000E0690028E5D100BFF5E72DE9F74F0546ED
:102A80000E46B61EE869801EB04200D800263446C5
:102A9000A2464FF0000B00BF686B00EB14312846D4
:102AA00001F0ACFB18B14FF0FF30BDE8FE8FC4F36E
:102AB000C80904F0070101208840C7B200BF00BF69
:102AC00005F13C0010F8090000EA07087806070E37
:102AD000601C0446E969891E884203D3002400274C
:102AE0004FF40079B8F1000F08D10BF101008346D3
:102AF0000299884205D10AF10200D6E7A2464FF0BA
:102B0000000BB44201D10020CFE7002FD8D101271C
:102B100009F101008146B0F5007FD0D3BCE7000089
:102B20002DE9F74F90B0002111980160109800F046
:102B300020FE0E900E98002803DA0B2013B0BDE89B
:102B4000F08FF7490E9851F820400CB90C20F5E7AA
:102B500011980460129800F0FE001290207878B16D
:102B60006078FEF70BFF83460BF0010040B9129826
:102B700020B10BF0040008B10A20DFE70020DDE7F8
:102B8000002020700E9860706078FEF773FE834618
:102B90000BF0010008B10320D0E7129820B10BF030
:102BA000040008B10A20C9E7002739462046FDF78E
:102BB00081FF0646022E01D02EDA2DE0002514E01A
:102BC0004FF4DF7000EB051104F13C0008440F9056
:102BD0000F98007920B10F98083001F0E1F900E07A
:102BE000002007A941F825006D1C042DE8D300251D
:102BF00005B16D1E00BF07A850F8257027B13946F2
:102C00002046FDF757FF00E003200646022E03DBB7
:102C1000681C05460428EED3042E01D101208DE75F
:102C2000022E01DB0D2089E7012E70D10B2500E07B
:102C30006D1C402D04D204F13C00405D0028F7D00B
:102C4000402D01D20D2079E704F1A40001F0E5F94F
:102C5000B0F5807F01D00D2070E794F8A810012016
:102C60008840B0F5007F01D00D2067E704F18400B3
:102C700001F0A2F903460846D91940F10000CDE958
:102C80000410DDE90410091E70F1010001D30D20CC
:102C900054E704F1900001F083F9206294F8AA004F
:102CA000A070A078012801D00D2047E794F8A91062
:102CB000012088406081608908B90D203EE704F159
:102CC000980001F06DF980469649884501D90D209C
:102CD00034E708F10200E061676204F1940001F05A
:102CE0005FF93844206304F18C0001F059F938444D
:102CF000A0620021608900FB08F0226B1318494193
:102D0000DDE90420D21A884102D20D2016E769E0DD
:102D100004F19C0001F044F9E062002005460390B4
:102D200000BFB5B961890398814201D80D2005E73C
:102D30002046E16AFDF716FF039908440146019019
:102D4000204601F05BFA08B10120F7E60398401C29
:102D5000039004F13C00405D812800D104E005F1BE
:102D60002000C0F30805DCE700BF04F13C01294462
:102D700001F1140001F014F98146B9F1020F02D3F8
:102D8000E069484501D80D20D8E66289A9F1020022
:102D9000216B02FB0010606300BFA06A00EBD91139
:102DA000204601F02BFA08B10120C7E609F07F01A7
:102DB00004F13C0202EB810001F0F2F8029002986B
:102DC000401C00B907E009F10100814602998842E0
:102DD000E3D00D20B2E600BF4FF0FF30A06160618C
:102DE0000426F2E004F1470001F017F9B0F5007F86
:102DF00001D00D20A2E604F1520001F00EF9824646
:102E0000BAF1000F04D104F1600001F0C9F8824664
:102E1000C4F820A04C20005DA070A078012804D048
:102E2000A078022801D00D2088E6A0780AFB00FADD
:102E30004920005D6081608918B16089411E0840A9
:102E400008B10D207AE604F14D0001F0E6F820818A
:102E5000207A00F00F0008B10D206FE604F14F005A
:102E600001F0DBF80D900D9820B904F15C0001F041
:102E700097F80D9004F14A0001F0CFF806900698FB
:102E800008B90D205AE606985044218900EB11102C
:102E90000C90DDE90C01814201D20D204EE6DDE906
:102EA0000C10401A6189B0FBF1F8B8F1000F01D1A4
:102EB0000D2043E600261C48804500D803264FF627
:102EC000F570804500D8022640F6F570804500D8A0
:102ED00001260EB90D2031E608F10200E0616762BB
:102EE00006983844A0620C9838442063032E13D10E
:102EF00004F1660001F091F808B10D201EE620896A
:102F000008B10D201AE604F1680001F049F8E0620A
:102F1000E06980000B901AE0208938B90D200DE699
:102F20009C120020FDFFFF7FF5FFFF0FA06A5044B9
:102F3000E062022E02D1E069400007E0207F00F04D
:102F40000100E16901EB410100EB51000B90216AA6
:102F50000B9800F2FF10B1EB502F01D20D20EDE5E0
:102F60004FF0FF30A061606180202071032E2CD1D2
:102F700004F16C0001F051F8012826D1791C20469B
:102F800001F03CF908BB0020207104F23A2001F066
:102F900044F84AF65521884217D104F13C0000F06C
:102FA000FFFF1149884210D104F5087000F0F8FFC6
:102FB0000E49884209D104F5097000F0F1FFA061C3
:102FC00004F50A7000F0ECFF606126700848008884
:102FD000401C80B206490880E0800648E060064850
:102FE00020610020AAE500005252614172724161E5
:102FF0008E01002010150020B01200202DE9F341B1
:103000000446276802E00198401C0190019800786E
:103010002F28F8D0019800785C28F4D00020A06018
:10302000E06101980078202808D280214B200155CA
:1030300000212046FEF7C8FB05463EE000BF01A97F
:103040002046FDF7CFFE054605B135E02046FEF7E8
:10305000E9F805464B20065D3DB1042D04D100BFC3
:1030600006F0040000B9052526E006F0040000B1D2
:1030700022E0A07900F0100008B905251CE038789E
:1030800004280ED1A0682062206920F0FF00E179B9
:1030900008436062E06CA0622146384600F006FDFD
:1030A00009E0208EC0F3080207F13C0011183846F1
:1030B00000F063FFA060C2E700BF2846BDE8FC81C6
:1030C0002DE9F04104460F4600F09CFD06465048AD
:1030D000007800282FD14F48007801280ED14E48A3
:1030E00000884E4908804E4800884E4908800020DC
:1030F000484908704C4908704C490880B0884FF422
:10310000A071B1FBF0F04A490988884214D90A2C11
:1031100012D00D2C78D04148008800EB4010454A71
:1031200002EB8002424803880088401CDFF800C19F
:10313000ACF80000D45467E03A4800883749098861
:10314000884211DB3C48007858B936480088401C5A
:103150003449088008460088082805D100200880E6
:1031600002E00020344908703148058811E020232E
:103170002A48008800EB40102E4901EB80012C48C2
:1031800002880088401CDFF8A8C0ACF800008B540F
:103190006D1CB0884FF4A071B1FBF0F0A842E6D8E6
:1031A000264800681D49098801EB4111214A02EBBC
:1031B0008101C1F8800000201D490880FDF7B2F8A8
:1031C00016480088401C15490880084600880828D1
:1031D00006D1002008800120124908801649087095
:1031E0000A2C11D00D2C0FD00C48008800EB401099
:1031F000104901EB80020E4801880088401CDFF86E
:1032000030C0ACF8000054542046BDE8F081000006
:103210005A010020590100205601002050010020D1
:10322000540100204E0100205B01002052010020CB
:103230004C010020CC09002058010020480100204A
:1032400070B504460D46174931F8140001F074FAC0
:103250004FF4C06001F070FA134951F8243013495B
:1032600051F824000322042100F06CFB012D17D13A
:103270000F4908570022022100F0DAFF0D4A115DC4
:103280000D4A105D00F012FB0C4951F82400012298
:103290000021FEF775FD094951F82400FEF7CEFD27
:1032A00070BD0000F4000020E8000020DC000020D9
:1032B0000E0100200B01002008010020FC0000206E
:1032C00010B50446044A52F82410044A52F8240067
:1032D00000F096FB10BD0000E8000020DC0000209C
:1032E00008B500200090FEF78DFB322001F0BBFEF8
:1032F000002000F00FFE009048F6891100988842E7
:1033000001D100F094FC08BD10B504460B4931F81A
:10331000140001F011FA0A4951F82430094951F812
:1033200024000322102100F00DFB054850F8240072
:10333000044951F82410486110BD0000D400002059
:10334000A40000209400002070B504460A4A52F8F8
:1033500024100A4A52F8240000F052FBC0F1010088
:10336000C5B2054A52F82410044A52F824002A46ED
:1033700000F096FA70BD0000A40000209400002028
:103380002DE9FF4F83B0804691461E460B224046F2
:10339000049900F01DFF052E18D9374611E039F8C1
:1033A00002BB00250BE0584667F35F0007464FEA73
:1033B0006B0B07F4803008B1234847406D1C102D7B
:1033C000F1D3B9F800000028E9D13E46072500BF37
:1033D00006F00F0000F1300ABAF1390F03DD0AF1EF
:1033E000070000F0FF0A28466D1E01A901F800A0A1
:1033F0003609002EECD17E20485500240AE018F84A
:103400000400FDF763FE20B1681EA04200D107E072
:10341000641C641CAC4203D218F804002028EED1CE
:1034200000BF00BF082D04D228466D1C01A9085C0E
:1034300000E020202146641C08F80100082CF1D38C
:1034400007B0BDE8F08F0000211001002DE9FC5FFE
:1034500006460C463568022C02D3E869A04202D821
:103460004FF00109B7E04FF0FF392878012806D066
:10347000022830D0032841D004287CD152E02746CE
:1034800007EB5707A86A00EB5721284600F0B6FE65
:1034900000B19FE038467F1CC0F3080105F13C00F5
:1034A00010F80180A86A00EB5721284600F0A6FE1C
:1034B00000B18FE0C7F3080105F13C00405C48EA29
:1034C000002804F0010010B14FEA181001E0C8F321
:1034D0000B0081467EE0A86A00EB1421284600F02C
:1034E0008DFE00B176E040F2FF1101EA440205F1E1
:1034F0003C01501800F091FD81466BE0A86A00EB9A
:10350000D411284600F07AFE00B163E040F2FF11CA
:1035100001EA840205F13C01501800F041FD20F061
:10352000704957E00022D6E9041051405040014351
:1035300001D0B06808B9F07990BBB068A4EB000A7C
:10354000D6E90420521E60F10000CDE900204FF4BE
:1035500000720023DDE90001FCF716FE6989B0FB6B
:10356000F1FBF07902280AD1DA4508D8DA4503D10F
:103570006FF0004001E02AE0601C81462AE0F0790B
:10358000032805D1B069504502D904F1010921E0B1
:10359000F079022819D0F06918B16FF0004913E0F2
:1035A00014E0A86A00EBD411284600F027FE00B111
:1035B00010E040F2FF1101EA840205F13C015018CD
:1035C00000F0EEFC20F0004904E000BF00BF4FF027
:1035D000010900BF00BF4846BDE8FC9F0048704796
:1035E0000000214E2DE9F04707460C46D7F800A011
:1035F0000020A076B86B08B9BDE8F0879AF8000003
:10360000042805D12146DAF8100000F0D9F8F3E7D4
:10361000F86C401CA8B30025A946A84622E0404605
:1036200008F10108DAF80C2032F81060B9F1000F47
:1036300007D1B6F5584F04DBB6F5604F01DAB14655
:1036400010E0C5F1FF0204F11A03591946EA0940D6
:1036500000F080FF06460EB9002509E035444FF022
:10366000000900BFDAF80C0030F818000028D6D1A5
:1036700000BFB9F1000F00D00025002104F11A00AD
:1036800041550020054680461BE0404608F10108F0
:10369000FA6B165C202E00D113E0052E00D1E52632
:1036A000B8F1090F07D10C2D05D22E2228466D1C2A
:1036B00004F10D010A5428466D1C04F10D010E544D
:1036C00000BFB8F10B0FE0D3002104F10D0041550C
:1036D000A07EA8BB35B93F2228466D1C04F11A0113
:1036E0000A5424E00020054680461AE004F10D004B
:1036F00010F80860412E0EDB5A2E0CDCF86B007BB4
:10370000B8F1090F01D3102100E00821084010B1E1
:1037100006F1200086B204F11A00465508F10108AE
:103720006D1C04F10D0010F808000028DED1002106
:1037300004F11A004155F86B007B08B90020607352
:10374000F86BC07A2073F96B01F11C0000F028FCC3
:103750000021C4E90001F96B01F1160000F05DFCE5
:103760006081F96B01F1180000F057FC208100BF67
:1037700042E770B504464FF0FF30266831463246C6
:1037800001B970BD00BF12F8013B202B01D33A2BC9
:10379000F9D13A2B11D105250E78302E08DB0E78A1
:1037A000392E05DC8E1C964202D10E78A6F130052A
:1037B000052D01DA28462260E3E7002000BFE0E79C
:1037C0002DE9F04705460C464FF040084FF0000A3F
:1037D0004FF0000900272EE0B8F5187F01D300272D
:1037E0002DE008F01F0008B908F1020805EB0800F9
:1037F00000F013FC064608F102080AF1010AB9F1CB
:10380000000F07D1B6F5584F04DBB6F5604F01DA6B
:10381000B14610E0C7F1FF0204F11A03D91946EAD4
:10382000094000F097FE06460EB9002707E037442E
:103830004FF0000900BF95F823005045CCD800BFD9
:10384000B9F1000F00D000272FB93F2238467F1C66
:1038500004F11A010A54002104F11A00C155002094
:10386000607328792073207B00F0100010B10020D5
:10387000014603E005F1380000F09EFBC4E90001B9
:1038800005F10C0000F0C9FB608105F10E0000F0AD
:10389000C4FB2081BDE8F08741617047016170473A
:1038A0000AB1016100E041617047000010B50022DB
:1038B0008B071C0F0F2303FA04F204290EDA204BA6
:1038C0009B6893431E4CA36023469B688C07240F80
:1038D00000FA04F423431A4CA3602FE008290EDAFF
:1038E000174BDB689343164CE3602346DB688C0779
:1038F000240F00FA04F42343114CE3601EE00C296A
:103900000EDA0F4B1B6993430D4C236123461B6951
:103910008C07240F00FA04F42343094C23610DE0C3
:10392000074B5B699343064C636123465B698C07D5
:10393000240F00FA04F42343014C636110BD00001E
:1039400000000140F0B5044616460025002201F0B3
:103950000F0501F0100747B1042E05D145F003050E
:10396000E76B1F43E76300E0354300201EE00127BB
:1039700087401F40C7B122684FEA800C0F2707FA23
:103980000CF7BA43870005FA07F73A43282904D110
:10399000012787401F40676105E0482903D10127BF
:1039A00087401F4027612260471CB8B20828DED339
:1039B000082022E0012787401F40E7B16268A0F19C
:1039C00008074FEA870C0F2707FA0CF7BA43A0F154
:1039D0000807BF0005FA07F73A43282904D1012751
:1039E00087401F40676105E0482903D101278740D0
:1039F0001F4027616260471CB8B21028DAD3F0BDBF
:103A000002469068084008B1012070470020FCE79A
:103A100070B505460C4607480560204600F00EF8D4
:103A200000BF044800680028FBD1034801F01DF9DD
:103A300070BD000088000020000400401FB504464F
:103A4000184801F012F90121164801F065F9022C1D
:103A500002D10B20029004E0012C02D142F6DF607B
:103A600002901148006880B2ADF800000020ADF867
:103A70000200ADF80400ADF806008DF80C006946B0
:103A8000084801F0FDF80121064801F04DF905480C
:103A900001F0E6F80121034801F042F9014801F084
:103AA000E9F81FBD000400409000002070B50546F5
:103AB0000C46296901F1340000F072FAA06029690E
:103AC00001F1380000F078FAC4E90401286990F89F
:103AD000210000F00200E0710020E06170BD0000F4
:103AE00001B5BDF800000149088008BD1A01002099
:103AF0002DE9F04706460F46904600250024A146D2
:103B000000BF50E02B4800680168A8F1200005EBD9
:103B1000001011F810902848008808BB002419E014
:103B2000C4F1070049FA00F000F0010040B13A1971
:103B300091B2721B90B2214A128800F0B4F907E0EA
:103B40003A1991B2721B90B21D4A128800F0ABF97B
:103B5000601C84B2174800688088A042E0DC20E046
:103B6000002419E0C4F1070049FA00F000F0010058
:103B700040B17A1991B2321990B2104A128800F00D
:103B800092F907E07A1991B2321990B20C4A128870
:103B900000F089F9601C84B2064800688088A04261
:103BA000E0DC681C85B203480068C088A842A9DC34
:103BB000BDE8F087140100201C010020180100203E
:103BC0001A01002070B5044600250021084600F0C7
:103BD0000CF800F027F800BF03E04FF0C24004806B
:103BE0006D1CB5F5963FF8D370BD10B503460C4675
:103BF00019464E2000F096F921464F2000F092F928
:103C000010BD00000148006870470000140100204A
:103C10000149086070470000140100204FF0C241C4
:103C20000880704722204FF0C0410880704700B5DF
:103C30000121002000F076F94AF6A401032000F0EB
:103C400071F900210C2000F06DF940F60C010D20F7
:103C500000F068F94FF42C510E2000F063F9B02108
:103C60001E2000F05FF946F63F11012000F05AF9DE
:103C70004FF4C061022000F055F90021102000F03F
:103C800051F946F27001112000F04CF90021052095
:103C900000F048F90021062000F044F94EF61C71AE
:103CA000162000F03FF90321172000F03BF940F205
:103CB0003321072000F036F900210B2000F032F903
:103CC00000210F2000F02EF90021412000F02AF9F8
:103CD0000021422000F026F90021482000F022F9BE
:103CE00040F23F11492000F01DF900214A2000F068
:103CF00019F900214B2000F015F94FF46F414420D1
:103D000000F010F90021452000F00CF940F23F11BD
:103D1000462000F007F940F20771302000F002F968
:103D20004FF40171312000F0FDF84FF401713220A1
:103D300000F0F8F840F20251332000F0F3F840F2BE
:103D40000751342000F0EEF84FF40171352000F0F7
:103D5000E9F84FF40171362000F0E4F840F2025126
:103D6000372000F0DFF840F202313A2000F0DAF8B4
:103D700040F202313B2000F0D5F80021232000F072
:103D8000D1F80021242000F0CDF84FF40041252087
:103D900000F0C8F800214E2000F0C4F800214F20A8
:103DA00000F0C0F84CF2503301E0581E83B2002BF3
:103DB000FBDC00BD4FF6FF700C49086000200C4989
:103DC00008800C4908800C4908800C4908800C497F
:103DD000088001200B49087000200B4908700B492E
:103DE00008700B4908700B49088070474801002093
:103DF0004C0100204E010020500100205401002001
:103E00005601002058010020590100205A010020CD
:103E10005B0100205201002070B504460D461F20B2
:103E200000F088F84FF4A0731E220021D22000F089
:103E30004FF81F20FFF754FE4FF4784000F07AF857
:103E400022462946E62000F07DF80020FFF748FED4
:103E500070BD000070B504460D460E48FFF7D8FE51
:103E60001F2000F067F84FF4A0731E2200210846BF
:103E700000F02EF81F20FFF733FE4FF4784000F0DB
:103E800059F822462946142000F05CF80020FFF77C
:103E900027FE70BD2801002010B5FFF78BFF002022
:103EA000FFF790FE10BD70B506460C461546F02E85
:103EB00002DCB4F5A07F00DD70BD21463046FFF77F
:103EC00094FEFFF7AFFE2846FFF7A8FE00BFF3E71A
:103ED0002DE9F04704460D469046994626462F4662
:103EE00000BF0FE02F4607E00948028839463046F8
:103EF000FFF7D9FF781C87B205EB0900B842F3DC65
:103F0000701C86B204EB0800B042EBDCBDE8F08721
:103F10001801002001464FF0C04211804FF0C2420C
:103F2000108870474FF0C04210804FF0C24211809D
:103F30007047000001B5BDF800000149088008BDC8
:103F4000180100202DE9F04107460E4614460025D1
:103F50002046FCF76EF9804600BF0AE014F8012BFA
:103F6000082000FB056081B23846FFF7C1FD681CE0
:103F700085B24545F2DBBDE8F08170B505460C46DB
:103F800004F11A0000F049F806462878032805D104
:103F900004F1140000F041F846EA0046304670BDD6
:103FA0000146C8788A7842EA00204A7842EA00202E
:103FB0000A7842EA0020704770B50246D37900249F
:103FC000250245EA1364907940EA0323250245EA75
:103FD0001364507940EA0323250245EA13641079FB
:103FE00040EA0323250245EA1364D07840EA03231C
:103FF000200240EA1364917841EA0323210241EA56
:104000001364507840EA0323250245EA13641178CB
:1040100041EA03231846214670BD014648780A78D4
:1040200042EA0020704770B504460D4628682060BB
:10403000286AA06095F82400E071686A20F0FF000B
:104040000021C4E904010020E061A86AE064204680
:10405000E16CFDF7B9FB06461EB9204600F003F8F7
:104060000646304670BD2DE9F047044620680669D3
:10407000A16B206800F0C2F8054615B12846BDE8DE
:10408000F087E06B0078852801D00220F7E7202236
:104090003046E16B00F09CF87078401C4FEA401805
:1040A000B8F1600F02D3B8F5187F01D90220E6E716
:1040B00000212046FDF78AF90546042D00D102258E
:1040C0000DB12846DBE7A16B206800F097F80546A4
:1040D0000DB12846D3E7E06B0078C02801D002205C
:1040E000CDE7202206F12000E16B00F071F896F890
:1040F00023002C300F21B0FBF1F0B8EB401F01D2B0
:104100000220BCE7402700BF00212046FDF75EF9F2
:104110000546042D00D102250DB12846AFE7A16B5D
:10412000206800F06BF805460DB12846A7E7E06B64
:104130000078C12801D00220A1E7B7F5187F04D28A
:10414000F0192022E16B00F043F807F12000074648
:104150004045D9D3B7F5187F0AD8304604F066FC3D
:104160008146B01CFFF759FF814501D0022086E748
:10417000002084E701F05AF901F0BCF901F012FACD
:104180000749084801F00AFB0749064801F06AFFA1
:1041900000F05EFF02E0034801F072FBFBE7000065
:1041A000700100209401002038000020F0B5034683
:1041B0001D460C46002000BF15F8017B14F801CB0A
:1041C000A7EB0C00561E321E01D00028F4D0F0BD23
:1041D00030B503460C463AB100BF14F8015B03F852
:1041E000015B551E2A1EF8D130BD10B5034600BF35
:1041F00003F8011B541E221EFAD110BD70B50446EF
:104200000D460026A06BA84210D0204600F038FCD6
:1042100006465EB9607801232A4604F13C01FDF7A9
:104220007BFB10B14FF0FF350126A563304670BD12
:104230002DE9F04103460D46164600240027A0460E
:104240002A48006800F4E060B0F5E06F03D100BFD9
:104250004FF0040830E02548006800F4E060B0F555
:10426000C06F03D101274FF0030825E01F48006805
:1042700000F4E060B0F5A06F02D10227B8461BE061
:104280001A48006800F4E060B0F5806F03D103279E
:104290004FF0010810E01548006800F4E060B0F548
:1042A000407F03D104274FF0000805E04FF4A060E1
:1042B00000F020F80227B846C7F1040005FA00F420
:1042C000C8F104010F20C8403040044324010848CD
:1042D000C45403F01F01012088405911890001F1E5
:1042E000E021C1F80001BDE8F08100000CED00E024
:1042F00000E400E002490143024A116070470000F7
:104300000000FA050CED00E02DE9F04780460C4670
:1043100004F11A00FFF781FE10B10020BDE8F0871C
:10432000207820F04000401E00EB800101EBC0052A
:104330004FF00109002619E01449895D0819FFF7BB
:104340006CFE0746B9F1000F09D0FF2D01D3002004
:10435000E4E7B94628466D1C28F8107005E04FF6D2
:10436000FF70874201D00020D8E7761C0D2EE3D3E2
:10437000207800F0400030B1FF2D01D30020CDE7C0
:10438000002028F815000120C8E70000A8CE00088A
:104390002DE9F04704460D4616464FF00209022D5E
:1043A00077D3E069A84274D92078012806D0022882
:1043B0004BD0032861D004280DD15FE02F4607EBD6
:1043C0005707A06A00EB57212046FFF717FF8146E9
:1043D000B9F1000F00D079E038467F1CC0F3080126
:1043E00004F13C0001EB000805F0010028B1F1B236
:1043F00098F8000061F31F1000E0304688F80000D4
:104400000120E070A06A00EB57212046FFF7F6FE7E
:104410008146B9F1000F00D058E0C7F3080104F15C
:104420003C0001EB000805F0010010B1C6F30710D5
:1044300006E098F8000000F0F000C6F303210843FE
:1044400088F800000120E07040E0A06A00EB152130
:104450002046FFF7D3FE8146B9F1000F00D035E0CA
:10446000B1B240F2FF1202EA450304F13C0298188F
:1044700000F06FFA0120E07028E000BFA06A00EBB6
:10448000D5112046FFF7BAFE8146B9F1000F01D0E1
:104490001CE01CE0207804280BD040F2FF1101EA58
:1044A000850204F13C015018FFF77AFD66F31B000A
:1044B000064640F2FF1101EA850204F13C01501862
:1044C000314600F00CFA0120E07000BF00BF484602
:1044D000BDE8F0872DE9F04707460C46154698469B
:1044E00084F80D800F20E07200202073002104F179
:1044F0001A0000F02EFA681E00EB800101EBC009E3
:1045000000200646824600BF4FF6FF70864204D068
:10451000484609F1010937F810600D4911F80A10F1
:104520000819314600F015FA0EB94FF6FF760AF178
:10453000010082460D28E7D34FF6FF70864202D075
:1045400037F8190008B945F040052570BDE8F08737
:10455000A8CE00082DE9F04107460C4616464FF458
:1045600069713846FEF7BAF90546FF2D0BDD022EBC
:1045700002D20020BDE8F081281204F8010B04F8F3
:10458000015B0220F6E705B10EB90020F2E704F85E
:10459000015B0120EEE700002DE9F14F8EB0002015
:1045A0000C905CA090E8004CC068CDE905BECDF849
:1045B00010A0079058A0D0F804A00068CDE9020A26
:1045C0000FF2541ADAE9000ACDE9000A55484068AA
:1045D000C0F381000D900D9820B1012804D002286D
:1045E00063D103E0504B62E0504B60E04D484068BF
:1045F00000F48039B9F5803F2FD14A48C06A00F0F5
:1046000080400B900B9808B9484A00E0484A45485A
:10461000C06A00F480300A900A98B0F5803F12D149
:104620004048C06AC0F30310401C08903D48C06A6F
:10463000C0F30320871C112F00D114270898B2FB68
:10464000F0F000FB07F23748C06A00F00F00401C92
:1046500009900998B2FBF0F200E0364A3148406810
:10466000C0F383412F48406800F0005008B141F08A
:1046700010012C48406800F0804008B141F0200152
:104680000F2901D2891C06E00F2903D33E2901D846
:10469000491C00E03F2102FB01F30F2904D102EB8A
:1046A0004200400000EB520301E01F4B00BF00BF7F
:1046B0001C484068C0F3031504A8465D23FA06F4BD
:1046C00018484068C0F3022502A8465D24FA06FC9B
:1046D00014484068C0F3C2251DF8056024FA06F8A6
:1046E0000E9830B1012806D0022806D003280AD13E
:1046F00006E00C9308E00C9406E0CDF830C003E02F
:10470000CDF8308000E000BF00BF0C980FB0BDE8CE
:10471000F08F000000000000000000000102030410
:10472000060708090010024000127A0040787D0157
:10473000006CDC0200093D00064A02EB901109689A
:1047400000F01F0301229A401143024B03EB901229
:104750001160704700100240044A516821F4400182
:1047600041EA0002014B5A6070470000001002400D
:104770002DE9F05F06460F4690464FF00009356878
:10478000BA46BB46022F02D3E869B84202D80220DB
:10479000BDE8F09FB8F1000F11D02878042802D1AD
:1047A000F07902280BD04FF0FF3241462846FFF740
:1047B000EFFD8146B9F1000F01D04846E8E700BFA0
:1047C00039463046FEF742FE044604B93EE0012C6D
:1047D00001D10220DCE7601C08B90120D8E7287865
:1047E00004280AD0002239462846FFF7D1FD814629
:1047F000B9F1000F01D04846CAE7D5E90610801E7E
:10480000814206D2A869401CA861287940F00100C5
:1048100028710BF10100A04201D1A34612E02878D3
:1048200004280DD1ABEB0A00421C00235146284658
:10483000FCF7FBF88146B9F1000F01D04846A7E725
:10484000A346A2462746E869B842B9D800BF2878EF
:10485000042830D1B8F1000F02D10020F0712AE015
:10486000F079D8B9B76811E039463046FEF7EEFD69
:104870000446022C01D202208AE7601C08B90120FC
:1048800086E7781C844200D002E07F1C4745EBD1CC
:1048900000BF47450FD10220F0710CE0F0790328EA
:1048A00009D1B068404506D8B169B06808444045B0
:1048B00001D30220F07100206AE770B506460C466D
:1048C0001546A9B204F11A0000F043F83078032825
:1048D00004D1290C04F1140000F03BF870BD00F87D
:1048E000011B090A00F8011B090A00F8011B090A4B
:1048F00000F8011B704730B500F8012B110A41EA9E
:1049000003621B0A00F8012B110A41EA03621B0A29
:1049100000F8012B110A41EA03621B0A00F8012B7F
:10492000110A41EA03621B0A00F8012B110A41EA4D
:1049300003621B0A00F8012B110A41EA03621B0AF9
:1049400000F8012B110A41EA03621B0A00F8012B4F
:1049500030BD00F8011B091200F8011B70472DE95A
:10496000F041044620680569284604F05FF8804657
:104970004146A81CFFF7EDFF6878471C2046E16C14
:10498000FCF722FF064618E0A16B2068FFF736FC13
:10499000064606B113E020222946E06BFFF718FC1B
:1049A00001202168C870781E071E00D107E020355D
:1049B00000212046FCF70AFD0646002EE4D000BF89
:1049C0000EB1012E02D13046BDE8F0810220FBE796
:1049D00030B5014600200B2200BF431003EBC0148A
:1049E00011F8015B6319D8B2531E1A1EF5D130BD00
:1049F00070B50446204600F043F80546002D38D136
:104A0000207803282ED1207901282BD142020021C1
:104A100004F13C00FFF7E9FB4AF6552104F23A2085
:104A2000FFF797FF144904F13C00FFF758FF1349C3
:104A300004F50870FFF753FF04F50970A169FFF74B
:104A40004EFF04F50A706169FFF749FF606A401C78
:104A5000A0636078012304F13C01A26BFCF798FF8E
:104A600000202071607800221146FCF717FF00B18A
:104A70000125284670BD00005252614172724161A9
:104A800070B504460025E078E8B16078012304F1B0
:104A90003C01A26BFCF77CFFA0B90020E070A16A8A
:104AA000A06B401A216A88420DD2A07802280AD150
:104AB000236AA16BCA186078012304F13C01FCF75A
:104AC00067FF00E00125284670BD000008B5002002
:104AD0000021484A126842F48032464B1A6000BFF7
:104AE000401C444A126802F4003119B94FF6FF72B3
:104AF0009042F5D13F4A126802F400320AB900BF71
:104B0000FEE73C4AD26942F080523A4BDA613A4AB7
:104B1000126842F44042384B1A60364A5268354BAC
:104B20005A601A4652685A601A46526842F48062C5
:104B30005A601A465268314B1A402E4B5A601A4638
:104B400052682F4B1A432B4B5A601A46D26A2D4B90
:104B50001A40284BDA621A46D26A2B4B1A43254B6D
:104B6000DA621A46126842F080621A6000BF214A77
:104B7000126802F00062002AF9D01E4A126842F060
:104B800080721C4B1A6000BF1A4A126802F0007251
:104B9000002AF9D0184A126842F48032164B1A6083
:104BA00000BF154A526802F48032002AF9D0124A36
:104BB000126842F40032104B1A6000BF0E4A52686D
:104BC00002F40032002AF9D00A4A52680092009A90
:104BD00022F003020092009A42F002020092054B7A
:104BE000009A5A6000BF034A526802F00802002A85
:104BF000F9D008BD0010024000700040FFFFC39FC5
:104C00000000352000F0FEBF4906010010B5FFF797
:104C10005DFF10BD2DE9F0410646356815F8014BE2
:104C20002046FCF753FA60B115F8017B3846FCF7D3
:104C300067FA18B94FF0FF30BDE8F08107EB0420A8
:104C400084B24CB14FF469712046FDF713FE04465F
:104C500014B94FF0FF30EFE7A04635604046EBE770
:104C6000016841F0800101607047016821F0010195
:104C700001607047016841F0010101607047000068
:104C80000A8882621D4A90420ED0B0F1804F0BD04C
:104C90001B4A904208D01B4A904205D01A4A9042C3
:104CA00002D01A4A90420BD1026822F070020260D0
:104CB00002684B881A43026002688B881A430260BC
:104CC0008A68C262124A90420AD0124A904207D0C1
:104CD000026822F4407202600268CB881A430260C4
:104CE000064A904202D0094A904201D10A7B0263EF
:104CF000426942F00102426170470000002C01400D
:104D00000004004000080040000C00400034014056
:104D10000010004000140040C2688A43C26070471F
:104D2000C2680A43C2607047CA43026170470246C4
:104D3000D06800EA01031069084010B10BB10120EE
:104D400070470020FCE7000010B5094801680068C2
:104D5000401C074A1060B1F5803F08D10020FEF7E3
:104D6000F3FA0120FEF7F0FA00200149086010BDB7
:104D70008400002030B5AFB004460D460020E0703E
:104D8000022020704FF0A040E060082060700420F6
:104D9000A0700220207100206071A071BC216846C3
:104DA000FBF73CFAE0680090E06800F500600190D5
:104DB000E06800F580600290E06800F588601E9071
:104DC000E06800F56060BC2269462E902846FBF73B
:104DD0000CFA002013E0E16801F5106101EB4012CC
:104DE00005F10C0141F82020E16801F5306101EB8B
:104DF000401205F1240141F82020411CC8B2A178DD
:104E00008142E8DC002013E0E16801F5A06101EBDC
:104E1000401205F13C0141F82020E16801F5805184
:104E200001EB003205F17C0141F82020411CC8B2A1
:104E300061788142E8DC00202FB030BD1FB5069CB0
:104E40009DF80400012818D12068806B20F4803080
:104E5000216888639DF8050028B12068806B40F4C4
:104E60008010216888632068C0681649084021685E
:104E7000C860204600F028F820E02068C06840F0B4
:104E800040002168C860204600F01EF82068806B52
:104E900040F45020216888632068806B40F4001043
:104EA000216888639DF8050028B12068806B40F474
:104EB000801021688863142000F0D5F8002004B029
:104EC00010BD0000BFFFDFFF10B504462068006979
:104ED00040F001002168086100BF2068006900F00F
:104EE00001000028F9D1032000F055FB10BD026835
:104EF000D26822F0C0420368DA6031B90268D26831
:104F000042F080420368DA6007E0012905D10268B7
:104F1000D26842F000520368DA607047014601200F
:104F2000024AC2F8CC00002070470000EC0D0020BF
:104F300001460020014AC2F8CC007047EC0D002069
:104F400010B504462069401C2061D4F8340340B1F8
:104F5000D4F83403406920B1D4F8340341692046C1
:104F60008847002010BD00002DE9F04104460025CF
:104F700000260027A8460021D4F8C80001600120BF
:104F8000A169096821F00302A1690A60A1690968A1
:104F90000143A269116000BFA069006820F004010C
:104FA000A069016080202169486247F0800747F4CA
:104FB000C0072069876248F0E00848F4C00820690B
:104FC000C0F80081102104F1100000F0BFFA04F1D4
:104FD000100000F06FFA002021698861401E2169ED
:104FE00048606FF080402169486100BF0DE04FF0DC
:104FF000FF3104F14C0050F825008160002104F1DC
:105000004C0050F82500C1606D1C6078A842EED8B5
:105010000121204600F0C3F90A4821698861E0783F
:1050200000B9102608480643206980693043216989
:105030008861064E20698069B0432169886100203B
:10504000BDE8F08100080080000010430800002047
:1050500010B54FF4A060FFF74DF900220221432064
:10506000FFF7E6F810BD10B5044601212046FEF713
:10507000CFFC10BD8269126822F0030382691360BD
:10508000826912680A4383691A60704718B502463C
:1050900002F14C0050F82100006800900098C0F325
:1050A0008143009840F04040009033B1012B0FD075
:1050B000022B03D0032B14D109E000BF1069C06A92
:1050C00080B218B9009820F0004000900AE000BFBC
:1050D0009069006980B218B9009820F000400090F3
:1050E00000E000BF00BF02F14C0050F82100009C1E
:1050F0000460002018BD3CB502460B460020002489
:1051000001940124009403EB430404EBC30502F56E
:10511000887404EB8501451EC43C54F82340A56007
:105120004C7A1CB1009C44F4807400948C7A34B1A5
:10513000012C0FD0022C03D0032C16D105E000BFA8
:10514000009C44F49364009410E0009C44F4D36405
:1051500000940BE0009C44F4087400944C7A1CB159
:10516000009C44F08004009400E000BF00BF02F106
:105170004C0454F82340009DE5609469A46901251E
:105180009D402C439569AC611469A46944F0007496
:105190001569AC614C784FF0FE5505EA8454019DC9
:1051A0002C4301940C7A4FF4F04505EAC424019D88
:1051B0002C4301944C7A4FF4004505EAC434019D18
:1051C0002C4301948C7A4FF4402505EA8444019DD8
:1051D0002C4301944C68B4F5802F01D1012400E0E8
:1051E00000244FF4003505EA4444019D2C4301940A
:1051F0008C89019D2C4301948C7A032C01D10124CC
:1052000000E000244FF0005505EA4474019D2C4352
:10521000019402F14C0454F82340019D25603CBDEB
:105220002DE9F84F04460E464FF0000AD1460027FC
:105230000020009006EB460000EBC60104F58870E4
:1052400000EB8105B5F80C80A86968B1A8694044F5
:10525000401EB0FBF8F087B28C2F06D98C2707FBD5
:1052600008F080B2A86100E00127687A18B107FB56
:1052700008F080B2A8612969A8690843364901EAA3
:10528000C741014304F14C0050F82600016104F1CC
:105290004C0050F826000068009000BFA0698068AC
:1052A00000F0010080F0010020B1009840F00050B3
:1052B000009003E0009820F000500090009840F02B
:1052C00000400090009820F08040009004F14C00D5
:1052D00050F8260000990160E078002838D1687AFB
:1052E000B0BBA869A0B3A87A30B1012816D00228B3
:1052F00003D0032822D110E000BFA869C01CC0F36E
:105300008F092069C06A80B2484505D2206980694A
:1053100040F020002169886111E000BFA869C01C2D
:10532000C0F38F09A069006980B2484505D22069A1
:10533000806940F080602169886100E000BF00BFA3
:10534000288B83B2324604F11000696900F012F92B
:105350005046BDE8F88F00000000F81F0146882085
:105360004058006820F00E00704738B504462046CB
:10537000FFF7F4FF0090009840F4807188200059F6
:1053800001601420FFF76FFE009820F480718820E0
:10539000005901601420FFF766FE012038BD70B58A
:1053A00006460D460024284600F012F93046FFF765
:1053B000D5FF044604F4805018B9012D01D144F4FE
:1053C000805404F4805010B10DB924F48054882026
:1053D00080590460C820FFF746FE70BD2DE9F041FA
:1053E00004460D4616461F4604F14C0050F82500B1
:1053F000C06840F0020104F14C0050F82500C16083
:1054000029462046FFF742FE04F14C0050F82500E3
:10541000866005EB450000EBC50104F5887000EBE4
:10542000810080F82870BDE8F081000010B50020F0
:10543000FFF7B2F804461948844207D14FF48000C0
:10544000174908600320174908601EE01648844287
:1054500006D100201249086005201249086014E0B6
:105460001248844207D14FF440000D4908600720DC
:105470000C49086009E00E48844206D14FF4000050
:105480000749086009200749086005480068FFF7D8
:1054900063F940F20C50FFF74FF910BD006CDC02CD
:1054A0008C0000209000002000A24A0400D8B8051B
:1054B000000E270710B5044610202168086100BFC0
:1054C0002068006900F010000028F9D1032000F0E6
:1054D00062F8002010BD70B50346D01C8508DC6F53
:1054E00002E020680860091D281EA5F10105F8D119
:1054F000084670BD10B54FF4A060FEF7FBFE002219
:1055000001211D20FEF794FE40F20170FFF714F90F
:1055100010BD000010B501210A48FFF708FC78B162
:1055200001210848FFF700FC0748006828B1064839
:105530000068401E0449086002E00248FFF795FB3E
:1055400010BD0000000400408800002070B5044633
:105550000D46202040EA85102168086100BF2068C0
:10556000006900F020000028F9D1032000F013F8B2
:10557000002070BDF0B50446D81C860804F17C00FC
:1055800050F8225002E008682860091D301EA6F17C
:105590000106F8D1F0BD10B5044602212046FEF701
:1055A00037FA10BD10B540F20560FFF7C5F84FF4AB
:1055B0000053032214210548FEF7C4F9002000F02F
:1055C00007F8C820FFF74FFD10BD00000014014090
:1055D00010B504462CB94FF400510548FEF75EF9AA
:1055E00004E04FF400510248FEF756F910BD0000E8
:1055F000001401402DE9FC4104460D464FF000081F
:105600000126271D04F12008387E78B9124903C904
:10561000CDE90001ADF80650DDE90001C7E904015C
:105620002A464146204600F08BFA00BF204600F093
:1056300037FA064666B9092D05D8414604F23A20E4
:1056400000F00CF804E0414604F1200000F02BF8D3
:105650003046BDE8FC8100002CCE00080EB50A786B
:105660008DF800204A788DF801208B78CA7803EBFA
:10567000022292B2ADF802200A798DF804204A790C
:105680008DF805208A798DF80620CA798DF80720D3
:105690000A7A8DF80820009A0260019A42609DF80B
:1056A000082002720EBD2DE9F04F87B005468946ED
:1056B00000200690002682464C46002780468346FE
:1056C00002900190494605F21A20FFF7C7FF05F244
:1056D0001A2A092001909AF80400022802D907B07A
:1056E000BDE8F08F52E001A9204602F083F904469C
:1056F0006078042849D1A7780298B84201D04FF0C9
:10570000000B07EB4700C0EB471105F2232000EB2D
:1057100081000BEB4B01C1EB4B1100EB41060BF190
:10572000010000F0FF0BE07803282ED2214603A8E9
:1057300001F052F99DF81000072800D9CFE703A91E
:10574000304601F049F902979DF8100000B91DE0BC
:105750004FF0000815E001A9204602F04BF904467D
:10576000607805280DD1C8EBC80106F1090008448E
:1057700006902146069800F027FC08F1010000F091
:10578000FF089DF810004045E5DC00BFBAF80200B4
:10579000BDF804108842A6DC00BFA0E710B50246A1
:1057A000002079B192F83C33022B09D292F83C43A5
:1057B000631C82F83C3302F54B7343F8241002E07B
:1057C000022000E0022010BD2DE9FC4705460E46F0
:1057D00014464FF0010905F10408D5F8407398F814
:1057E000180070BB254903C9CDE90001ADF804607C
:1057F000DDE90001C8E9040106F07F0104EB440083
:1058000000EBC40207F5887000EB8200007A814249
:1058100024D138462146002201EB410303EBC10CA1
:1058200000F5887303EB8C035B7A5BB101EB4103FA
:1058300003EBC10C00F5887303EB8C0383F8202085
:105840000AE014E001EB410303EBC10C00F588739F
:1058500003EB8C0383F8212000BF02E00220BDE8A7
:10586000FC8700221146284600F06AF900BF28464E
:1058700000F016F981464846F1E7000064CE0008C2
:105880001CB50446022001908448D0F8CC0018B121
:105890008248D0F8D00030B9207820B12078032891
:1058A00001D00320207020780D2870D2DFE800F0AE
:1058B000071830D9535E70ABBD9CF2F2C90077482F
:1058C000D0F8CC0058B1012020706420FFF7CBFB4A
:1058D0007248FFF74AFDD4F83813C8688047DAE009
:1058E0006E48D0F8D00090B1022020706B4888211B
:1058F0000958096801F4C021C4F82412D4F83823E7
:10590000D4F82402916988473220FFF7ACFBC2E04B
:10591000D4F83813886880470021604802F073F893
:10592000607180215D4802F06EF82071A0790090CE
:105930002279002304F12001584802F08FF8A07961
:1059400000906279002304F12001544802F086F8A7
:10595000042020709FE0204600F058FA28B9D4F8BF
:105960003813486B80470520207094E094F841027A
:1059700000F0200040B100220121204602F0BAF9D7
:1059800020B90620207001E00620207083E081E02D
:1059900094F83C0310B90C20207024E00020C4F8D7
:1059A000340394F8481200BF10E004F54B7252F82B
:1059B000202012788A4201D0FF2905D104F54B72CC
:1059C00052F82020C4F83423421CD0B294F83C236F
:1059D0008242EADCD4F8340310B10920207001E0DF
:1059E0000C20207000BF56E0D4F83813886B804735
:1059F000012807D1D4F8340341682046884708B904
:105A00000720207047E0D4F83403C1682046884757
:105A100001909DF8040010B90820207004E09DF862
:105A20000410204600F0F0FA35E0D4F834030169A0
:105A30002046884701909DF80410204600F0E4FAC3
:105A400029E0204600F056F9D4F83813486880471A
:105A5000D4F8340320B1D4F8340381682046884751
:105A600019E0D4F8381308698047204600F042F95D
:105A7000D4F8381348688047D4F8340320B1D4F8F8
:105A80003403816820468847044802F009F8002062
:105A9000207000E000BF00BF1CBD0000EC0D002026
:105AA00070B504460125207F0D282BD2DFE800F0D9
:105AB0002A072A0B2A0F2A132A172A1F1B002046FF
:105AC00002F03EF91FE0204600F040F81BE02046BF
:105AD00000F050F817E0204602F058F913E0204695
